{
  "_format": "hh-sol-artifact-1",
  "contractName": "Elections",
  "sourceName": "contracts/Elections.sol",
  "abi": [
    {
      "inputs": [
        {
          "internalType": "uint256",
          "name": "votingStart",
          "type": "uint256"
        },
        {
          "internalType": "uint256",
          "name": "votingEnd",
          "type": "uint256"
        },
        {
          "internalType": "string[]",
          "name": "options",
          "type": "string[]"
        }
      ],
      "stateMutability": "nonpayable",
      "type": "constructor"
    },
    {
      "anonymous": false,
      "inputs": [
        {
          "indexed": false,
          "internalType": "string[]",
          "name": "options",
          "type": "string[]"
        }
      ],
      "name": "NewVoting",
      "type": "event"
    },
    {
      "anonymous": false,
      "inputs": [
        {
          "indexed": true,
          "internalType": "address",
          "name": "previousOwner",
          "type": "address"
        },
        {
          "indexed": true,
          "internalType": "address",
          "name": "newOwner",
          "type": "address"
        }
      ],
      "name": "OwnershipTransferred",
      "type": "event"
    },
    {
      "anonymous": false,
      "inputs": [
        {
          "indexed": true,
          "internalType": "address",
          "name": "voter",
          "type": "address"
        }
      ],
      "name": "RegisterVoter",
      "type": "event"
    },
    {
      "anonymous": false,
      "inputs": [
        {
          "indexed": true,
          "internalType": "address",
          "name": "voter",
          "type": "address"
        },
        {
          "indexed": true,
          "internalType": "uint256",
          "name": "option",
          "type": "uint256"
        }
      ],
      "name": "Vote",
      "type": "event"
    },
    {
      "anonymous": false,
      "inputs": [
        {
          "indexed": false,
          "internalType": "uint256",
          "name": "start",
          "type": "uint256"
        },
        {
          "indexed": false,
          "internalType": "uint256",
          "name": "end",
          "type": "uint256"
        }
      ],
      "name": "VotingPeriodChange",
      "type": "event"
    },
    {
      "inputs": [],
      "name": "EIP712Domain",
      "outputs": [
        {
          "internalType": "string",
          "name": "",
          "type": "string"
        }
      ],
      "stateMutability": "view",
      "type": "function"
    },
    {
      "inputs": [],
      "name": "EIP712DomainVersion",
      "outputs": [
        {
          "internalType": "string",
          "name": "",
          "type": "string"
        }
      ],
      "stateMutability": "view",
      "type": "function"
    },
    {
      "inputs": [
        {
          "internalType": "uint8",
          "name": "v",
          "type": "uint8"
        },
        {
          "internalType": "bytes32",
          "name": "r",
          "type": "bytes32"
        },
        {
          "internalType": "bytes32",
          "name": "s",
          "type": "bytes32"
        },
        {
          "internalType": "address",
          "name": "sender",
          "type": "address"
        },
        {
          "internalType": "uint256",
          "name": "deadline",
          "type": "uint256"
        },
        {
          "internalType": "address",
          "name": "addr",
          "type": "address"
        }
      ],
      "name": "eip712RegisterVoter",
      "outputs": [],
      "stateMutability": "nonpayable",
      "type": "function"
    },
    {
      "inputs": [
        {
          "internalType": "uint8",
          "name": "v",
          "type": "uint8"
        },
        {
          "internalType": "bytes32",
          "name": "r",
          "type": "bytes32"
        },
        {
          "internalType": "bytes32",
          "name": "s",
          "type": "bytes32"
        },
        {
          "internalType": "address",
          "name": "sender",
          "type": "address"
        },
        {
          "internalType": "uint256",
          "name": "deadline",
          "type": "uint256"
        },
        {
          "internalType": "uint256",
          "name": "votingStart",
          "type": "uint256"
        },
        {
          "internalType": "uint256",
          "name": "votingEnd",
          "type": "uint256"
        }
      ],
      "name": "eip712SetVotingPeriod",
      "outputs": [],
      "stateMutability": "nonpayable",
      "type": "function"
    },
    {
      "inputs": [
        {
          "internalType": "uint8",
          "name": "v",
          "type": "uint8"
        },
        {
          "internalType": "bytes32",
          "name": "r",
          "type": "bytes32"
        },
        {
          "internalType": "bytes32",
          "name": "s",
          "type": "bytes32"
        },
        {
          "internalType": "address",
          "name": "sender",
          "type": "address"
        },
        {
          "internalType": "uint256",
          "name": "deadline",
          "type": "uint256"
        },
        {
          "internalType": "uint256",
          "name": "voteOption",
          "type": "uint256"
        }
      ],
      "name": "eip712Vote",
      "outputs": [],
      "stateMutability": "nonpayable",
      "type": "function"
    },
    {
      "inputs": [
        {
          "internalType": "uint256",
          "name": "start",
          "type": "uint256"
        },
        {
          "internalType": "uint256",
          "name": "limit",
          "type": "uint256"
        }
      ],
      "name": "getRegisteredVoters",
      "outputs": [
        {
          "internalType": "address[]",
          "name": "",
          "type": "address[]"
        }
      ],
      "stateMutability": "view",
      "type": "function"
    },
    {
      "inputs": [],
      "name": "getVotingOptions",
      "outputs": [
        {
          "components": [
            {
              "internalType": "string",
              "name": "name",
              "type": "string"
            },
            {
              "internalType": "uint256",
              "name": "votes",
              "type": "uint256"
            }
          ],
          "internalType": "struct VoteOption[]",
          "name": "",
          "type": "tuple[]"
        }
      ],
      "stateMutability": "view",
      "type": "function"
    },
    {
      "inputs": [],
      "name": "owner",
      "outputs": [
        {
          "internalType": "address",
          "name": "",
          "type": "address"
        }
      ],
      "stateMutability": "view",
      "type": "function"
    },
    {
      "inputs": [
        {
          "internalType": "address[]",
          "name": "addresses",
          "type": "address[]"
        }
      ],
      "name": "registerVoters",
      "outputs": [],
      "stateMutability": "nonpayable",
      "type": "function"
    },
    {
      "inputs": [
        {
          "internalType": "uint256",
          "name": "",
          "type": "uint256"
        }
      ],
      "name": "registeredVoters",
      "outputs": [
        {
          "internalType": "address",
          "name": "",
          "type": "address"
        }
      ],
      "stateMutability": "view",
      "type": "function"
    },
    {
      "inputs": [],
      "name": "renounceOwnership",
      "outputs": [],
      "stateMutability": "nonpayable",
      "type": "function"
    },
    {
      "inputs": [
        {
          "internalType": "uint256",
          "name": "votingStart",
          "type": "uint256"
        },
        {
          "internalType": "uint256",
          "name": "votingEnd",
          "type": "uint256"
        }
      ],
      "name": "setVotingPeriod",
      "outputs": [],
      "stateMutability": "nonpayable",
      "type": "function"
    },
    {
      "inputs": [
        {
          "internalType": "address",
          "name": "newOwner",
          "type": "address"
        }
      ],
      "name": "transferOwnership",
      "outputs": [],
      "stateMutability": "nonpayable",
      "type": "function"
    },
    {
      "inputs": [
        {
          "internalType": "uint256",
          "name": "voteOption",
          "type": "uint256"
        }
      ],
      "name": "vote",
      "outputs": [],
      "stateMutability": "nonpayable",
      "type": "function"
    },
    {
      "inputs": [
        {
          "internalType": "address",
          "name": "",
          "type": "address"
        }
      ],
      "name": "voters",
      "outputs": [
        {
          "internalType": "bool",
          "name": "registered",
          "type": "bool"
        },
        {
          "internalType": "bool",
          "name": "voted",
          "type": "bool"
        },
        {
          "internalType": "uint256",
          "name": "vote",
          "type": "uint256"
        }
      ],
      "stateMutability": "view",
      "type": "function"
    },
    {
      "inputs": [
        {
          "internalType": "uint256",
          "name": "",
          "type": "uint256"
        }
      ],
      "name": "votingOptions",
      "outputs": [
        {
          "internalType": "string",
          "name": "name",
          "type": "string"
        },
        {
          "internalType": "uint256",
          "name": "votes",
          "type": "uint256"
        }
      ],
      "stateMutability": "view",
      "type": "function"
    },
    {
      "inputs": [],
      "name": "votingParameters",
      "outputs": [
        {
          "internalType": "uint256",
          "name": "start",
          "type": "uint256"
        },
        {
          "internalType": "uint256",
          "name": "end",
          "type": "uint256"
        }
      ],
      "stateMutability": "view",
      "type": "function"
    },
    {
      "inputs": [],
      "name": "winningOption",
      "outputs": [
        {
          "components": [
            {
              "internalType": "string",
              "name": "name",
              "type": "string"
            },
            {
              "internalType": "uint256",
              "name": "votes",
              "type": "uint256"
            }
          ],
          "internalType": "struct VoteOption",
          "name": "",
          "type": "tuple"
        }
      ],
      "stateMutability": "view",
      "type": "function"
    },
    {
      "inputs": [],
      "name": "winningOptionIndex",
      "outputs": [
        {
          "internalType": "uint256",
          "name": "_winningOptionIndex",
          "type": "uint256"
        }
      ],
      "stateMutability": "view",
      "type": "function"
    }
  ],
  "bytecode": "0x60806040523480156200001157600080fd5b5060405162003574380380620035748339818101604052810190620000379190620005ae565b620000576200004b6200021860201b60201c565b6200022060201b60201c565b60005b8151811015620000fc576003604051806040016040528084848151811062000087576200008662000629565b5b60200260200101518152602001600081525090806001815401808255809150506001900390600052602060002090600202016000909190919091506000820151816000019081620000d9919062000899565b506020820151816001015550508080620000f390620009af565b9150506200005a565b5082421062000142576040517f08c379a0000000000000000000000000000000000000000000000000000000008152600401620001399062000a5d565b60405180910390fd5b81831062000187576040517f08c379a00000000000000000000000000000000000000000000000000000000081526004016200017e9062000acf565b60405180910390fd5b82600460000181905550816004600101819055507fa12b38d711244e995608ff936ce5530a28ed8bf7c7681ca9bb87e8a7edd34a5981604051620001cc919062000c13565b60405180910390a17fb2d78cec0582b6c1582ce85ec169d7eef7c2f30157784daf596227f6a913a56683836040516200020792919062000c48565b60405180910390a150505062000c75565b600033905090565b60008060009054906101000a900473ffffffffffffffffffffffffffffffffffffffff169050816000806101000a81548173ffffffffffffffffffffffffffffffffffffffff021916908373ffffffffffffffffffffffffffffffffffffffff1602179055508173ffffffffffffffffffffffffffffffffffffffff168173ffffffffffffffffffffffffffffffffffffffff167f8be0079c531659141344cd1fd0a4f28419497f9722a3daafe3b4186f6b6457e060405160405180910390a35050565b6000604051905090565b600080fd5b600080fd5b6000819050919050565b6200030d81620002f8565b81146200031957600080fd5b50565b6000815190506200032d8162000302565b92915050565b600080fd5b6000601f19601f8301169050919050565b7f4e487b7100000000000000000000000000000000000000000000000000000000600052604160045260246000fd5b620003838262000338565b810181811067ffffffffffffffff82111715620003a557620003a462000349565b5b80604052505050565b6000620003ba620002e4565b9050620003c8828262000378565b919050565b600067ffffffffffffffff821115620003eb57620003ea62000349565b5b602082029050602081019050919050565b600080fd5b600080fd5b600067ffffffffffffffff82111562000424576200042362000349565b5b6200042f8262000338565b9050602081019050919050565b60005b838110156200045c5780820151818401526020810190506200043f565b60008484015250505050565b60006200047f620004798462000406565b620003ae565b9050828152602081018484840111156200049e576200049d62000401565b5b620004ab8482856200043c565b509392505050565b600082601f830112620004cb57620004ca62000333565b5b8151620004dd84826020860162000468565b91505092915050565b6000620004fd620004f784620003cd565b620003ae565b90508083825260208201905060208402830185811115620005235762000522620003fc565b5b835b818110156200057157805167ffffffffffffffff8111156200054c576200054b62000333565b5b8086016200055b8982620004b3565b8552602085019450505060208101905062000525565b5050509392505050565b600082601f83011262000593576200059262000333565b5b8151620005a5848260208601620004e6565b91505092915050565b600080600060608486031215620005ca57620005c9620002ee565b5b6000620005da868287016200031c565b9350506020620005ed868287016200031c565b925050604084015167ffffffffffffffff811115620006115762000610620002f3565b5b6200061f868287016200057b565b9150509250925092565b7f4e487b7100000000000000000000000000000000000000000000000000000000600052603260045260246000fd5b600081519050919050565b7f4e487b7100000000000000000000000000000000000000000000000000000000600052602260045260246000fd5b60006002820490506001821680620006ab57607f821691505b602082108103620006c157620006c062000663565b5b50919050565b60008190508160005260206000209050919050565b60006020601f8301049050919050565b600082821b905092915050565b6000600883026200072b7fffffffffffffffffffffffffffffffffffffffffffffffffffffffffffffffff82620006ec565b620007378683620006ec565b95508019841693508086168417925050509392505050565b6000819050919050565b60006200077a620007746200076e84620002f8565b6200074f565b620002f8565b9050919050565b6000819050919050565b620007968362000759565b620007ae620007a58262000781565b848454620006f9565b825550505050565b600090565b620007c5620007b6565b620007d28184846200078b565b505050565b5b81811015620007fa57620007ee600082620007bb565b600181019050620007d8565b5050565b601f82111562000849576200081381620006c7565b6200081e84620006dc565b810160208510156200082e578190505b620008466200083d85620006dc565b830182620007d7565b50505b505050565b600082821c905092915050565b60006200086e600019846008026200084e565b1980831691505092915050565b60006200088983836200085b565b9150826002028217905092915050565b620008a48262000658565b67ffffffffffffffff811115620008c057620008bf62000349565b5b620008cc825462000692565b620008d9828285620007fe565b600060209050601f831160018114620009115760008415620008fc578287015190505b6200090885826200087b565b86555062000978565b601f1984166200092186620006c7565b60005b828110156200094b5784890151825560018201915060208501945060208101905062000924565b868310156200096b578489015162000967601f8916826200085b565b8355505b6001600288020188555050505b505050505050565b7f4e487b7100000000000000000000000000000000000000000000000000000000600052601160045260246000fd5b6000620009bc82620002f8565b91507fffffffffffffffffffffffffffffffffffffffffffffffffffffffffffffffff8203620009f157620009f062000980565b5b600182019050919050565b600082825260208201905092915050565b7f5374617274206461746520697320696e20746865207061737400000000000000600082015250565b600062000a45601983620009fc565b915062000a528262000a0d565b602082019050919050565b6000602082019050818103600083015262000a788162000a36565b9050919050565b7f496e76616c696420646174657320706173736564000000000000000000000000600082015250565b600062000ab7601483620009fc565b915062000ac48262000a7f565b602082019050919050565b6000602082019050818103600083015262000aea8162000aa8565b9050919050565b600081519050919050565b600082825260208201905092915050565b6000819050602082019050919050565b600082825260208201905092915050565b600062000b3b8262000658565b62000b47818562000b1d565b935062000b598185602086016200043c565b62000b648162000338565b840191505092915050565b600062000b7d838362000b2e565b905092915050565b6000602082019050919050565b600062000b9f8262000af1565b62000bab818562000afc565b93508360208202850162000bbf8562000b0d565b8060005b8581101562000c01578484038952815162000bdf858262000b6f565b945062000bec8362000b85565b925060208a0199505060018101905062000bc3565b50829750879550505050505092915050565b6000602082019050818103600083015262000c2f818462000b92565b905092915050565b62000c4281620002f8565b82525050565b600060408201905062000c5f600083018562000c37565b62000c6e602083018462000c37565b9392505050565b6128ef8062000c856000396000f3fe608060405234801561001057600080fd5b50600436106101215760003560e01c80638da5cb5b116100ad578063a52edbac11610071578063a52edbac146102e9578063aafec30f14610305578063d55ec9c114610321578063dff67f6b1461033d578063f2fde38b1461036e57610121565b80638da5cb5b1461024357806398882b65146102615780639fde4ef81461027d578063a15a36c71461029b578063a3ec138d146102b757610121565b8063409443a0116100f4578063409443a0146101ae5780634ed7d5e4146101cd57806357cde0e6146101fd578063715018a61461021b57806383859cf71461022557610121565b80630121b93f146101265780631e7439a31461014257806320bcc3f8146101605780632436e06b1461017e575b600080fd5b610140600480360381019061013b91906116b5565b61038a565b005b61014a610397565b6040516101579190611772565b60405180910390f35b6101686103d0565b6040516101759190611772565b60405180910390f35b610198600480360381019061019391906116b5565b610409565b6040516101a591906117d5565b60405180910390f35b6101b6610448565b6040516101c49291906117ff565b60405180910390f35b6101e760048036038101906101e29190611828565b61045a565b6040516101f49190611926565b60405180910390f35b6102056105be565b6040516102129190611948565b60405180910390f35b610223610646565b005b61022d61065a565b60405161023a9190611abb565b60405180910390f35b61024b610755565b60405161025891906117d5565b60405180910390f35b61027b60048036038101906102769190611b78565b61077e565b005b6102856108ab565b6040516102929190611c57565b60405180910390f35b6102b560048036038101906102b09190611828565b610988565b005b6102d160048036038101906102cc9190611c79565b61099e565b6040516102e093929190611cc1565b60405180910390f35b61030360048036038101906102fe9190611cf8565b6109e2565b005b61031f600480360381019061031a9190611d85565b610a97565b005b61033b60048036038101906103369190611f5a565b610c5e565b005b610357600480360381019061035291906116b5565b610c72565b604051610365929190611fa3565b60405180910390f35b61038860048036038101906103839190611c79565b610d2e565b005b6103943382610db1565b50565b6040518060400160405280600581526020017f312e302e3000000000000000000000000000000000000000000000000000000081525081565b6040518060400160405280600d81526020017f4554482d456c656374696f6e730000000000000000000000000000000000000081525081565b6002818154811061041957600080fd5b906000526020600020016000915054906101000a900473ffffffffffffffffffffffffffffffffffffffff1681565b60048060000154908060010154905082565b606060008360028054905061046f9190612002565b831161047b578261048d565b8360028054905061048c9190612002565b5b905060008167ffffffffffffffff8111156104ab576104aa611e17565b5b6040519080825280602002602001820160405280156104d95781602001602082028036833780820191505090505b5090506000808690505b83876104ef9190612036565b81108015610501575060028054905081105b156105b1576002818154811061051a5761051961206a565b5b9060005260206000200160009054906101000a900473ffffffffffffffffffffffffffffffffffffffff1683838061055190612099565b9450815181106105645761056361206a565b5b602002602001019073ffffffffffffffffffffffffffffffffffffffff16908173ffffffffffffffffffffffffffffffffffffffff168152505080806105a990612099565b9150506104e3565b5081935050505092915050565b6000806000905060005b6003805490508110156106415781600382815481106105ea576105e961206a565b5b906000526020600020906002020160010154111561062e57600381815481106106165761061561206a565b5b90600052602060002090600202016001015491508092505b808061063990612099565b9150506105c8565b505090565b61064e610f99565b6106586000611017565b565b60606003805480602002602001604051908101604052809291908181526020016000905b8282101561074c57838290600052602060002090600202016040518060400160405290816000820180546106b190612110565b80601f01602080910402602001604051908101604052809291908181526020018280546106dd90612110565b801561072a5780601f106106ff5761010080835404028352916020019161072a565b820191906000526020600020905b81548152906001019060200180831161070d57829003601f168201915b505050505081526020016001820154815250508152602001906001019061067e565b50505050905090565b60008060009054906101000a900473ffffffffffffffffffffffffffffffffffffffff16905090565b828042106107c1576040517f08c379a00000000000000000000000000000000000000000000000000000000081526004016107b89061218d565b60405180910390fd5b60007f91ce92de237ae5ba438e80d8c4310ca4b4b5b1aec0bfb4b563721928e5288f1f868686866040516020016107fc9594939291906121bc565b60405160208183030381529060405280519060200120905061082189898989856110db565b610829610755565b73ffffffffffffffffffffffffffffffffffffffff168673ffffffffffffffffffffffffffffffffffffffff1614610896576040517f08c379a000000000000000000000000000000000000000000000000000000000815260040161088d9061225b565b60405180910390fd5b6108a08484611248565b505050505050505050565b6108b3611651565b60036108bd6105be565b815481106108ce576108cd61206a565b5b90600052602060002090600202016040518060400160405290816000820180546108f790612110565b80601f016020809104026020016040519081016040528092919081815260200182805461092390612110565b80156109705780601f1061094557610100808354040283529160200191610970565b820191906000526020600020905b81548152906001019060200180831161095357829003601f168201915b50505050508152602001600182015481525050905090565b610990610f99565b61099a8282611248565b5050565b60016020528060005260406000206000915090508060000160009054906101000a900460ff16908060000160019054906101000a900460ff16908060010154905083565b81804210610a25576040517f08c379a0000000000000000000000000000000000000000000000000000000008152600401610a1c9061218d565b60405180910390fd5b60007f627f94cb4147a2160b7dfb09f24458a4a17fbc7a0fac5396f6b22c4aae063092858585604051602001610a5e949392919061227b565b604051602081830303815290604052805190602001209050610a8388888888856110db565b610a8d8584610db1565b5050505050505050565b81804210610ada576040517f08c379a0000000000000000000000000000000000000000000000000000000008152600401610ad19061218d565b60405180910390fd5b60007fd48a97facd8a4a55b296f2ae570c6220f0c10a2ef05aab9a39ca0bb9dd002ab9858585604051602001610b1394939291906122c0565b604051602081830303815290604052805190602001209050610b3888888888856110db565b610b40610755565b73ffffffffffffffffffffffffffffffffffffffff168573ffffffffffffffffffffffffffffffffffffffff1614610bad576040517f08c379a0000000000000000000000000000000000000000000000000000000008152600401610ba49061225b565b60405180910390fd5b6000600167ffffffffffffffff811115610bca57610bc9611e17565b5b604051908082528060200260200182016040528015610bf85781602001602082028036833780820191505090505b5090508381600081518110610c1057610c0f61206a565b5b602002602001019073ffffffffffffffffffffffffffffffffffffffff16908173ffffffffffffffffffffffffffffffffffffffff1681525050610c5381611364565b505050505050505050565b610c66610f99565b610c6f81611364565b50565b60038181548110610c8257600080fd5b9060005260206000209060020201600091509050806000018054610ca590612110565b80601f0160208091040260200160405190810160405280929190818152602001828054610cd190612110565b8015610d1e5780601f10610cf357610100808354040283529160200191610d1e565b820191906000526020600020905b815481529060010190602001808311610d0157829003601f168201915b5050505050908060010154905082565b610d36610f99565b600073ffffffffffffffffffffffffffffffffffffffff168173ffffffffffffffffffffffffffffffffffffffff1603610da5576040517f08c379a0000000000000000000000000000000000000000000000000000000008152600401610d9c90612377565b60405180910390fd5b610dae81611017565b50565b6004600001544210158015610dca575060046001015442105b610e09576040517f08c379a0000000000000000000000000000000000000000000000000000000008152600401610e00906123e3565b60405180910390fd5b6000600160008473ffffffffffffffffffffffffffffffffffffffff1673ffffffffffffffffffffffffffffffffffffffff16815260200190815260200160002090508060000160009054906101000a900460ff16610e9d576040517f08c379a0000000000000000000000000000000000000000000000000000000008152600401610e949061244f565b60405180910390fd5b8060000160019054906101000a900460ff1615610eef576040517f08c379a0000000000000000000000000000000000000000000000000000000008152600401610ee6906124bb565b60405180910390fd5b60018160000160016101000a81548160ff02191690831515021790555081816001018190555060038281548110610f2957610f2861206a565b5b90600052602060002090600202016001016000815480929190610f4b90612099565b9190505550818373ffffffffffffffffffffffffffffffffffffffff167ff668ead05c744b9178e571d2edb452e72baf6529c8d72160e64e59b50d865bd060405160405180910390a3505050565b610fa1611576565b73ffffffffffffffffffffffffffffffffffffffff16610fbf610755565b73ffffffffffffffffffffffffffffffffffffffff1614611015576040517f08c379a000000000000000000000000000000000000000000000000000000000815260040161100c90612527565b60405180910390fd5b565b60008060009054906101000a900473ffffffffffffffffffffffffffffffffffffffff169050816000806101000a81548173ffffffffffffffffffffffffffffffffffffffff021916908373ffffffffffffffffffffffffffffffffffffffff1602179055508173ffffffffffffffffffffffffffffffffffffffff168173ffffffffffffffffffffffffffffffffffffffff167f8be0079c531659141344cd1fd0a4f28419497f9722a3daafe3b4186f6b6457e060405160405180910390a35050565b60006110e561157e565b826040516020016110f79291906125bf565b6040516020818303038152906040528051906020012090506000600182888888604051600081526020016040526040516111349493929190612605565b6020604051602081039080840390855afa158015611156573d6000803e3d6000fd5b5050506020604051035190508373ffffffffffffffffffffffffffffffffffffffff168173ffffffffffffffffffffffffffffffffffffffff16146111d0576040517f08c379a00000000000000000000000000000000000000000000000000000000081526004016111c790612696565b60405180910390fd5b600073ffffffffffffffffffffffffffffffffffffffff168173ffffffffffffffffffffffffffffffffffffffff160361123f576040517f08c379a000000000000000000000000000000000000000000000000000000000815260040161123690612702565b60405180910390fd5b50505050505050565b600460000154421061128f576040517f08c379a00000000000000000000000000000000000000000000000000000000081526004016112869061276e565b60405180910390fd5b8142106112d1576040517f08c379a00000000000000000000000000000000000000000000000000000000081526004016112c8906127da565b60405180910390fd5b808210611313576040517f08c379a000000000000000000000000000000000000000000000000000000000815260040161130a90612846565b60405180910390fd5b81600460000181905550806004600101819055507fb2d78cec0582b6c1582ce85ec169d7eef7c2f30157784daf596227f6a913a56682826040516113589291906117ff565b60405180910390a15050565b60046000015442106113ab576040517f08c379a00000000000000000000000000000000000000000000000000000000081526004016113a29061276e565b60405180910390fd5b60005b815181101561157257600060405180606001604052806001151581526020016000151581526020016000815250905080600160008585815181106113f5576113f461206a565b5b602002602001015173ffffffffffffffffffffffffffffffffffffffff1673ffffffffffffffffffffffffffffffffffffffff16815260200190815260200160002060008201518160000160006101000a81548160ff02191690831515021790555060208201518160000160016101000a81548160ff0219169083151502179055506040820151816001015590505060028383815181106114995761149861206a565b5b60200260200101519080600181540180825580915050600190039060005260206000200160009091909190916101000a81548173ffffffffffffffffffffffffffffffffffffffff021916908373ffffffffffffffffffffffffffffffffffffffff1602179055508282815181106115145761151361206a565b5b602002602001015173ffffffffffffffffffffffffffffffffffffffff167f15fe6f1bc57ee784ec1d747d150facfe23b3d8f21303f37b9c99ff8d2389c82660405160405180910390a250808061156a90612099565b9150506113ae565b5050565b600033905090565b6000804690507f8b73c3c69bb8fe3d512ecc4cf759cc79239f7b179b0ffacaa9a75d522b39400f6040518060400160405280600d81526020017f4554482d456c656374696f6e7300000000000000000000000000000000000000815250805190602001206040518060400160405280600581526020017f312e302e30000000000000000000000000000000000000000000000000000000815250805190602001208330604051602001611635959493929190612866565b6040516020818303038152906040528051906020012091505090565b604051806040016040528060608152602001600081525090565b6000604051905090565b600080fd5b600080fd5b6000819050919050565b6116928161167f565b811461169d57600080fd5b50565b6000813590506116af81611689565b92915050565b6000602082840312156116cb576116ca611675565b5b60006116d9848285016116a0565b91505092915050565b600081519050919050565b600082825260208201905092915050565b60005b8381101561171c578082015181840152602081019050611701565b60008484015250505050565b6000601f19601f8301169050919050565b6000611744826116e2565b61174e81856116ed565b935061175e8185602086016116fe565b61176781611728565b840191505092915050565b6000602082019050818103600083015261178c8184611739565b905092915050565b600073ffffffffffffffffffffffffffffffffffffffff82169050919050565b60006117bf82611794565b9050919050565b6117cf816117b4565b82525050565b60006020820190506117ea60008301846117c6565b92915050565b6117f98161167f565b82525050565b600060408201905061181460008301856117f0565b61182160208301846117f0565b9392505050565b6000806040838503121561183f5761183e611675565b5b600061184d858286016116a0565b925050602061185e858286016116a0565b9150509250929050565b600081519050919050565b600082825260208201905092915050565b6000819050602082019050919050565b61189d816117b4565b82525050565b60006118af8383611894565b60208301905092915050565b6000602082019050919050565b60006118d382611868565b6118dd8185611873565b93506118e883611884565b8060005b8381101561191957815161190088826118a3565b975061190b836118bb565b9250506001810190506118ec565b5085935050505092915050565b6000602082019050818103600083015261194081846118c8565b905092915050565b600060208201905061195d60008301846117f0565b92915050565b600081519050919050565b600082825260208201905092915050565b6000819050602082019050919050565b600082825260208201905092915050565b60006119ab826116e2565b6119b5818561198f565b93506119c58185602086016116fe565b6119ce81611728565b840191505092915050565b6119e28161167f565b82525050565b60006040830160008301518482036000860152611a0582826119a0565b9150506020830151611a1a60208601826119d9565b508091505092915050565b6000611a3183836119e8565b905092915050565b6000602082019050919050565b6000611a5182611963565b611a5b818561196e565b935083602082028501611a6d8561197f565b8060005b85811015611aa95784840389528151611a8a8582611a25565b9450611a9583611a39565b925060208a01995050600181019050611a71565b50829750879550505050505092915050565b60006020820190508181036000830152611ad58184611a46565b905092915050565b600060ff82169050919050565b611af381611add565b8114611afe57600080fd5b50565b600081359050611b1081611aea565b92915050565b6000819050919050565b611b2981611b16565b8114611b3457600080fd5b50565b600081359050611b4681611b20565b92915050565b611b55816117b4565b8114611b6057600080fd5b50565b600081359050611b7281611b4c565b92915050565b600080600080600080600060e0888a031215611b9757611b96611675565b5b6000611ba58a828b01611b01565b9750506020611bb68a828b01611b37565b9650506040611bc78a828b01611b37565b9550506060611bd88a828b01611b63565b9450506080611be98a828b016116a0565b93505060a0611bfa8a828b016116a0565b92505060c0611c0b8a828b016116a0565b91505092959891949750929550565b60006040830160008301518482036000860152611c3782826119a0565b9150506020830151611c4c60208601826119d9565b508091505092915050565b60006020820190508181036000830152611c718184611c1a565b905092915050565b600060208284031215611c8f57611c8e611675565b5b6000611c9d84828501611b63565b91505092915050565b60008115159050919050565b611cbb81611ca6565b82525050565b6000606082019050611cd66000830186611cb2565b611ce36020830185611cb2565b611cf060408301846117f0565b949350505050565b60008060008060008060c08789031215611d1557611d14611675565b5b6000611d2389828a01611b01565b9650506020611d3489828a01611b37565b9550506040611d4589828a01611b37565b9450506060611d5689828a01611b63565b9350506080611d6789828a016116a0565b92505060a0611d7889828a016116a0565b9150509295509295509295565b60008060008060008060c08789031215611da257611da1611675565b5b6000611db089828a01611b01565b9650506020611dc189828a01611b37565b9550506040611dd289828a01611b37565b9450506060611de389828a01611b63565b9350506080611df489828a016116a0565b92505060a0611e0589828a01611b63565b9150509295509295509295565b600080fd5b7f4e487b7100000000000000000000000000000000000000000000000000000000600052604160045260246000fd5b611e4f82611728565b810181811067ffffffffffffffff82111715611e6e57611e6d611e17565b5b80604052505050565b6000611e8161166b565b9050611e8d8282611e46565b919050565b600067ffffffffffffffff821115611ead57611eac611e17565b5b602082029050602081019050919050565b600080fd5b6000611ed6611ed184611e92565b611e77565b90508083825260208201905060208402830185811115611ef957611ef8611ebe565b5b835b81811015611f225780611f0e8882611b63565b845260208401935050602081019050611efb565b5050509392505050565b600082601f830112611f4157611f40611e12565b5b8135611f51848260208601611ec3565b91505092915050565b600060208284031215611f7057611f6f611675565b5b600082013567ffffffffffffffff811115611f8e57611f8d61167a565b5b611f9a84828501611f2c565b91505092915050565b60006040820190508181036000830152611fbd8185611739565b9050611fcc60208301846117f0565b9392505050565b7f4e487b7100000000000000000000000000000000000000000000000000000000600052601160045260246000fd5b600061200d8261167f565b91506120188361167f565b92508282039050818111156120305761202f611fd3565b5b92915050565b60006120418261167f565b915061204c8361167f565b925082820190508082111561206457612063611fd3565b5b92915050565b7f4e487b7100000000000000000000000000000000000000000000000000000000600052603260045260246000fd5b60006120a48261167f565b91507fffffffffffffffffffffffffffffffffffffffffffffffffffffffffffffffff82036120d6576120d5611fd3565b5b600182019050919050565b7f4e487b7100000000000000000000000000000000000000000000000000000000600052602260045260246000fd5b6000600282049050600182168061212857607f821691505b60208210810361213b5761213a6120e1565b5b50919050565b7f5369676e6564207472616e73616374696f6e2065787069726564000000000000600082015250565b6000612177601a836116ed565b915061218282612141565b602082019050919050565b600060208201905081810360008301526121a68161216a565b9050919050565b6121b681611b16565b82525050565b600060a0820190506121d160008301886121ad565b6121de60208301876117c6565b6121eb60408301866117f0565b6121f860608301856117f0565b61220560808301846117f0565b9695505050505050565b7f556e617574686f72697a656420616374696f6e21000000000000000000000000600082015250565b60006122456014836116ed565b91506122508261220f565b602082019050919050565b6000602082019050818103600083015261227481612238565b9050919050565b600060808201905061229060008301876121ad565b61229d60208301866117c6565b6122aa60408301856117f0565b6122b760608301846117f0565b95945050505050565b60006080820190506122d560008301876121ad565b6122e260208301866117c6565b6122ef60408301856117f0565b6122fc60608301846117c6565b95945050505050565b7f4f776e61626c653a206e6577206f776e657220697320746865207a65726f206160008201527f6464726573730000000000000000000000000000000000000000000000000000602082015250565b60006123616026836116ed565b915061236c82612305565b604082019050919050565b6000602082019050818103600083015261239081612354565b9050919050565b7f566f74696e67206973206e6f7420696e2070726f636573732e00000000000000600082015250565b60006123cd6019836116ed565b91506123d882612397565b602082019050919050565b600060208201905081810360008301526123fc816123c0565b9050919050565b7f486173206e6f20726967687420746f20766f7465000000000000000000000000600082015250565b60006124396014836116ed565b915061244482612403565b602082019050919050565b600060208201905081810360008301526124688161242c565b9050919050565b7f416c726561647920766f7465642e000000000000000000000000000000000000600082015250565b60006124a5600e836116ed565b91506124b08261246f565b602082019050919050565b600060208201905081810360008301526124d481612498565b9050919050565b7f4f776e61626c653a2063616c6c6572206973206e6f7420746865206f776e6572600082015250565b60006125116020836116ed565b915061251c826124db565b602082019050919050565b6000602082019050818103600083015261254081612504565b9050919050565b600081905092915050565b7f1901000000000000000000000000000000000000000000000000000000000000600082015250565b6000612588600283612547565b915061259382612552565b600282019050919050565b6000819050919050565b6125b96125b482611b16565b61259e565b82525050565b60006125ca8261257b565b91506125d682856125a8565b6020820191506125e682846125a8565b6020820191508190509392505050565b6125ff81611add565b82525050565b600060808201905061261a60008301876121ad565b61262760208301866125f6565b61263460408301856121ad565b61264160608301846121ad565b95945050505050565b7f496e76616c6964207369676e6174757265000000000000000000000000000000600082015250565b60006126806011836116ed565b915061268b8261264a565b602082019050919050565b600060208201905081810360008301526126af81612673565b9050919050565b7f45434453413a20696e76616c6964207369676e61747572650000000000000000600082015250565b60006126ec6018836116ed565b91506126f7826126b6565b602082019050919050565b6000602082019050818103600083015261271b816126df565b9050919050565b7f566f74696e6720616c726561647920737461727465642e000000000000000000600082015250565b60006127586017836116ed565b915061276382612722565b602082019050919050565b600060208201905081810360008301526127878161274b565b9050919050565b7f5374617274206461746520697320696e20746865207061737400000000000000600082015250565b60006127c46019836116ed565b91506127cf8261278e565b602082019050919050565b600060208201905081810360008301526127f3816127b7565b9050919050565b7f496e76616c696420646174657320706173736564000000000000000000000000600082015250565b60006128306014836116ed565b915061283b826127fa565b602082019050919050565b6000602082019050818103600083015261285f81612823565b9050919050565b600060a08201905061287b60008301886121ad565b61288860208301876121ad565b61289560408301866121ad565b6128a260608301856117f0565b6128af60808301846117c6565b969550505050505056fea26469706673582212204d34b9087f5d1883b14d49bf3376b0db1d42dcc6f2f011eca30cd762bf4b73d764736f6c63430008110033",
  "linkReferences": {},
  "deployedLinkReferences": {}
}