{
  "_format": "hh-sol-artifact-1",
  "contractName": "Elections",
  "sourceName": "contracts/Elections.sol",
  "abi": [
    {
      "inputs": [
        {
          "internalType": "uint256",
          "name": "votingStart",
          "type": "uint256"
        },
        {
          "internalType": "uint256",
          "name": "votingEnd",
          "type": "uint256"
        },
        {
          "internalType": "string[]",
          "name": "options",
          "type": "string[]"
        }
      ],
      "stateMutability": "nonpayable",
      "type": "constructor"
    },
    {
      "anonymous": false,
      "inputs": [
        {
          "indexed": true,
          "internalType": "address",
          "name": "previousOwner",
          "type": "address"
        },
        {
          "indexed": true,
          "internalType": "address",
          "name": "newOwner",
          "type": "address"
        }
      ],
      "name": "OwnershipTransferred",
      "type": "event"
    },
    {
      "inputs": [
        {
          "internalType": "uint256",
          "name": "start",
          "type": "uint256"
        },
        {
          "internalType": "uint256",
          "name": "end",
          "type": "uint256"
        }
      ],
      "name": "getRegisteredVoters",
      "outputs": [
        {
          "internalType": "address[]",
          "name": "",
          "type": "address[]"
        }
      ],
      "stateMutability": "view",
      "type": "function"
    },
    {
      "inputs": [],
      "name": "getVotingOptions",
      "outputs": [
        {
          "components": [
            {
              "internalType": "string",
              "name": "name",
              "type": "string"
            },
            {
              "internalType": "uint256",
              "name": "votes",
              "type": "uint256"
            }
          ],
          "internalType": "struct VoteOption[]",
          "name": "",
          "type": "tuple[]"
        }
      ],
      "stateMutability": "view",
      "type": "function"
    },
    {
      "inputs": [],
      "name": "owner",
      "outputs": [
        {
          "internalType": "address",
          "name": "",
          "type": "address"
        }
      ],
      "stateMutability": "view",
      "type": "function"
    },
    {
      "inputs": [
        {
          "internalType": "address[]",
          "name": "addresses",
          "type": "address[]"
        }
      ],
      "name": "registerVoters",
      "outputs": [],
      "stateMutability": "nonpayable",
      "type": "function"
    },
    {
      "inputs": [
        {
          "internalType": "uint256",
          "name": "",
          "type": "uint256"
        }
      ],
      "name": "registeredVoters",
      "outputs": [
        {
          "internalType": "address",
          "name": "",
          "type": "address"
        }
      ],
      "stateMutability": "view",
      "type": "function"
    },
    {
      "inputs": [],
      "name": "renounceOwnership",
      "outputs": [],
      "stateMutability": "nonpayable",
      "type": "function"
    },
    {
      "inputs": [
        {
          "internalType": "uint256",
          "name": "votingStart",
          "type": "uint256"
        },
        {
          "internalType": "uint256",
          "name": "votingEnd",
          "type": "uint256"
        }
      ],
      "name": "setVotingPeriod",
      "outputs": [],
      "stateMutability": "nonpayable",
      "type": "function"
    },
    {
      "inputs": [
        {
          "internalType": "address",
          "name": "newOwner",
          "type": "address"
        }
      ],
      "name": "transferOwnership",
      "outputs": [],
      "stateMutability": "nonpayable",
      "type": "function"
    },
    {
      "inputs": [
        {
          "internalType": "uint256",
          "name": "voteOption",
          "type": "uint256"
        }
      ],
      "name": "vote",
      "outputs": [],
      "stateMutability": "nonpayable",
      "type": "function"
    },
    {
      "inputs": [
        {
          "internalType": "address",
          "name": "",
          "type": "address"
        }
      ],
      "name": "voters",
      "outputs": [
        {
          "internalType": "bool",
          "name": "registered",
          "type": "bool"
        },
        {
          "internalType": "bool",
          "name": "voted",
          "type": "bool"
        },
        {
          "internalType": "uint256",
          "name": "vote",
          "type": "uint256"
        }
      ],
      "stateMutability": "view",
      "type": "function"
    },
    {
      "inputs": [
        {
          "internalType": "uint256",
          "name": "",
          "type": "uint256"
        }
      ],
      "name": "votingOptions",
      "outputs": [
        {
          "internalType": "string",
          "name": "name",
          "type": "string"
        },
        {
          "internalType": "uint256",
          "name": "votes",
          "type": "uint256"
        }
      ],
      "stateMutability": "view",
      "type": "function"
    },
    {
      "inputs": [],
      "name": "votingParameters",
      "outputs": [
        {
          "internalType": "uint256",
          "name": "start",
          "type": "uint256"
        },
        {
          "internalType": "uint256",
          "name": "end",
          "type": "uint256"
        }
      ],
      "stateMutability": "view",
      "type": "function"
    },
    {
      "inputs": [],
      "name": "winningOption",
      "outputs": [
        {
          "components": [
            {
              "internalType": "string",
              "name": "name",
              "type": "string"
            },
            {
              "internalType": "uint256",
              "name": "votes",
              "type": "uint256"
            }
          ],
          "internalType": "struct VoteOption",
          "name": "",
          "type": "tuple"
        }
      ],
      "stateMutability": "view",
      "type": "function"
    },
    {
      "inputs": [],
      "name": "winningOptionIndex",
      "outputs": [
        {
          "internalType": "uint256",
          "name": "_winningOptionIndex",
          "type": "uint256"
        }
      ],
      "stateMutability": "view",
      "type": "function"
    }
  ],
  "bytecode": "0x60806040523480156200001157600080fd5b50604051620024a1380380620024a183398181016040528101906200003791906200053a565b620000576200004b620001a460201b60201c565b620001ac60201b60201c565b60005b8151811015620000fc5760036040518060400160405280848481518110620000875762000086620005b5565b5b60200260200101518152602001600081525090806001815401808255809150506001900390600052602060002090600202016000909190919091506000820151816000019081620000d9919062000825565b506020820151816001015550508080620000f3906200093b565b9150506200005a565b5082421062000142576040517f08c379a00000000000000000000000000000000000000000000000000000000081526004016200013990620009e9565b60405180910390fd5b81831062000187576040517f08c379a00000000000000000000000000000000000000000000000000000000081526004016200017e9062000a5b565b60405180910390fd5b826004600001819055508160046001018190555050505062000a7d565b600033905090565b60008060009054906101000a900473ffffffffffffffffffffffffffffffffffffffff169050816000806101000a81548173ffffffffffffffffffffffffffffffffffffffff021916908373ffffffffffffffffffffffffffffffffffffffff1602179055508173ffffffffffffffffffffffffffffffffffffffff168173ffffffffffffffffffffffffffffffffffffffff167f8be0079c531659141344cd1fd0a4f28419497f9722a3daafe3b4186f6b6457e060405160405180910390a35050565b6000604051905090565b600080fd5b600080fd5b6000819050919050565b620002998162000284565b8114620002a557600080fd5b50565b600081519050620002b9816200028e565b92915050565b600080fd5b6000601f19601f8301169050919050565b7f4e487b7100000000000000000000000000000000000000000000000000000000600052604160045260246000fd5b6200030f82620002c4565b810181811067ffffffffffffffff82111715620003315762000330620002d5565b5b80604052505050565b60006200034662000270565b905062000354828262000304565b919050565b600067ffffffffffffffff821115620003775762000376620002d5565b5b602082029050602081019050919050565b600080fd5b600080fd5b600067ffffffffffffffff821115620003b057620003af620002d5565b5b620003bb82620002c4565b9050602081019050919050565b60005b83811015620003e8578082015181840152602081019050620003cb565b60008484015250505050565b60006200040b620004058462000392565b6200033a565b9050828152602081018484840111156200042a57620004296200038d565b5b62000437848285620003c8565b509392505050565b600082601f830112620004575762000456620002bf565b5b815162000469848260208601620003f4565b91505092915050565b600062000489620004838462000359565b6200033a565b90508083825260208201905060208402830185811115620004af57620004ae62000388565b5b835b81811015620004fd57805167ffffffffffffffff811115620004d857620004d7620002bf565b5b808601620004e789826200043f565b85526020850194505050602081019050620004b1565b5050509392505050565b600082601f8301126200051f576200051e620002bf565b5b81516200053184826020860162000472565b91505092915050565b6000806000606084860312156200055657620005556200027a565b5b60006200056686828701620002a8565b93505060206200057986828701620002a8565b925050604084015167ffffffffffffffff8111156200059d576200059c6200027f565b5b620005ab8682870162000507565b9150509250925092565b7f4e487b7100000000000000000000000000000000000000000000000000000000600052603260045260246000fd5b600081519050919050565b7f4e487b7100000000000000000000000000000000000000000000000000000000600052602260045260246000fd5b600060028204905060018216806200063757607f821691505b6020821081036200064d576200064c620005ef565b5b50919050565b60008190508160005260206000209050919050565b60006020601f8301049050919050565b600082821b905092915050565b600060088302620006b77fffffffffffffffffffffffffffffffffffffffffffffffffffffffffffffffff8262000678565b620006c3868362000678565b95508019841693508086168417925050509392505050565b6000819050919050565b60006200070662000700620006fa8462000284565b620006db565b62000284565b9050919050565b6000819050919050565b6200072283620006e5565b6200073a62000731826200070d565b84845462000685565b825550505050565b600090565b6200075162000742565b6200075e81848462000717565b505050565b5b8181101562000786576200077a60008262000747565b60018101905062000764565b5050565b601f821115620007d5576200079f8162000653565b620007aa8462000668565b81016020851015620007ba578190505b620007d2620007c98562000668565b83018262000763565b50505b505050565b600082821c905092915050565b6000620007fa60001984600802620007da565b1980831691505092915050565b6000620008158383620007e7565b9150826002028217905092915050565b6200083082620005e4565b67ffffffffffffffff8111156200084c576200084b620002d5565b5b6200085882546200061e565b620008658282856200078a565b600060209050601f8311600181146200089d576000841562000888578287015190505b62000894858262000807565b86555062000904565b601f198416620008ad8662000653565b60005b82811015620008d757848901518255600182019150602085019450602081019050620008b0565b86831015620008f75784890151620008f3601f891682620007e7565b8355505b6001600288020188555050505b505050505050565b7f4e487b7100000000000000000000000000000000000000000000000000000000600052601160045260246000fd5b6000620009488262000284565b91507fffffffffffffffffffffffffffffffffffffffffffffffffffffffffffffffff82036200097d576200097c6200090c565b5b600182019050919050565b600082825260208201905092915050565b7f5374617274206461746520697320696e20746865207061737400000000000000600082015250565b6000620009d160198362000988565b9150620009de8262000999565b602082019050919050565b6000602082019050818103600083015262000a0481620009c2565b9050919050565b7f496e76616c696420646174657320706173736564000000000000000000000000600082015250565b600062000a4360148362000988565b915062000a508262000a0b565b602082019050919050565b6000602082019050818103600083015262000a768162000a34565b9050919050565b611a148062000a8d6000396000f3fe608060405234801561001057600080fd5b50600436106100ea5760003560e01c80638da5cb5b1161008c578063a3ec138d11610066578063a3ec138d14610228578063d55ec9c11461025a578063dff67f6b14610276578063f2fde38b146102a7576100ea565b80638da5cb5b146101d05780639fde4ef8146101ee578063a15a36c71461020c576100ea565b80634ed7d5e4116100c85780634ed7d5e41461015a57806357cde0e61461018a578063715018a6146101a857806383859cf7146101b2576100ea565b80630121b93f146100ef5780632436e06b1461010b578063409443a01461013b575b600080fd5b61010960048036038101906101049190610e4d565b6102c3565b005b61012560048036038101906101209190610e4d565b610466565b6040516101329190610ebb565b60405180910390f35b6101436104a5565b604051610151929190610ee5565b60405180910390f35b610174600480360381019061016f9190610f0e565b6104b7565b604051610181919061100c565b60405180910390f35b6101926105d7565b60405161019f919061102e565b60405180910390f35b6101b061065f565b005b6101ba610673565b6040516101c791906111e7565b60405180910390f35b6101d861076e565b6040516101e59190610ebb565b60405180910390f35b6101f6610797565b6040516102039190611246565b60405180910390f35b61022660048036038101906102219190610f0e565b610874565b005b610242600480360381019061023d9190611294565b61095f565b604051610251939291906112dc565b60405180910390f35b610274600480360381019061026f919061145b565b6109a3565b005b610290600480360381019061028b9190610e4d565b610b60565b60405161029e9291906114ee565b60405180910390f35b6102c160048036038101906102bc9190611294565b610c1c565b005b60046000015442101580156102dc575060046001015442105b61031b576040517f08c379a00000000000000000000000000000000000000000000000000000000081526004016103129061156a565b60405180910390fd5b6000600160003373ffffffffffffffffffffffffffffffffffffffff1673ffffffffffffffffffffffffffffffffffffffff16815260200190815260200160002090508060000160009054906101000a900460ff166103af576040517f08c379a00000000000000000000000000000000000000000000000000000000081526004016103a6906115d6565b60405180910390fd5b8060000160019054906101000a900460ff1615610401576040517f08c379a00000000000000000000000000000000000000000000000000000000081526004016103f890611642565b60405180910390fd5b60018160000160016101000a81548160ff0219169083151502179055508181600101819055506003828154811061043b5761043a611662565b5b9060005260206000209060020201600101600081548092919061045d906116c0565b91905055505050565b6002818154811061047657600080fd5b906000526020600020016000915054906101000a900473ffffffffffffffffffffffffffffffffffffffff1681565b60048060000154908060010154905082565b6060600083836104c79190611708565b67ffffffffffffffff8111156104e0576104df611318565b5b60405190808252806020026020018201604052801561050e5781602001602082028036833780820191505090505b5090506000808590505b848110156105cb576002818154811061053457610533611662565b5b9060005260206000200160009054906101000a900473ffffffffffffffffffffffffffffffffffffffff1683838061056b906116c0565b94508151811061057e5761057d611662565b5b602002602001019073ffffffffffffffffffffffffffffffffffffffff16908173ffffffffffffffffffffffffffffffffffffffff168152505080806105c3906116c0565b915050610518565b50819250505092915050565b6000806000905060005b60038054905081101561065a57816003828154811061060357610602611662565b5b9060005260206000209060020201600101541115610647576003818154811061062f5761062e611662565b5b90600052602060002090600202016001015491508092505b8080610652906116c0565b9150506105e1565b505090565b610667610c9f565b6106716000610d1d565b565b60606003805480602002602001604051908101604052809291908181526020016000905b8282101561076557838290600052602060002090600202016040518060400160405290816000820180546106ca9061176b565b80601f01602080910402602001604051908101604052809291908181526020018280546106f69061176b565b80156107435780601f1061071857610100808354040283529160200191610743565b820191906000526020600020905b81548152906001019060200180831161072657829003601f168201915b5050505050815260200160018201548152505081526020019060010190610697565b50505050905090565b60008060009054906101000a900473ffffffffffffffffffffffffffffffffffffffff16905090565b61079f610de9565b60036107a96105d7565b815481106107ba576107b9611662565b5b90600052602060002090600202016040518060400160405290816000820180546107e39061176b565b80601f016020809104026020016040519081016040528092919081815260200182805461080f9061176b565b801561085c5780601f106108315761010080835404028352916020019161085c565b820191906000526020600020905b81548152906001019060200180831161083f57829003601f168201915b50505050508152602001600182015481525050905090565b61087c610c9f565b60046000015442106108c3576040517f08c379a00000000000000000000000000000000000000000000000000000000081526004016108ba906117e8565b60405180910390fd5b814210610905576040517f08c379a00000000000000000000000000000000000000000000000000000000081526004016108fc90611854565b60405180910390fd5b808210610947576040517f08c379a000000000000000000000000000000000000000000000000000000000815260040161093e906118c0565b60405180910390fd5b81600460000181905550806004600101819055505050565b60016020528060005260406000206000915090508060000160009054906101000a900460ff16908060000160019054906101000a900460ff16908060010154905083565b6109ab610c9f565b60046000015442106109f2576040517f08c379a00000000000000000000000000000000000000000000000000000000081526004016109e9906117e8565b60405180910390fd5b60005b8151811015610b5c5760006040518060600160405280600115158152602001600015158152602001600081525090508060016000858581518110610a3c57610a3b611662565b5b602002602001015173ffffffffffffffffffffffffffffffffffffffff1673ffffffffffffffffffffffffffffffffffffffff16815260200190815260200160002060008201518160000160006101000a81548160ff02191690831515021790555060208201518160000160016101000a81548160ff021916908315150217905550604082015181600101559050506002838381518110610ae057610adf611662565b5b60200260200101519080600181540180825580915050600190039060005260206000200160009091909190916101000a81548173ffffffffffffffffffffffffffffffffffffffff021916908373ffffffffffffffffffffffffffffffffffffffff160217905550508080610b54906116c0565b9150506109f5565b5050565b60038181548110610b7057600080fd5b9060005260206000209060020201600091509050806000018054610b939061176b565b80601f0160208091040260200160405190810160405280929190818152602001828054610bbf9061176b565b8015610c0c5780601f10610be157610100808354040283529160200191610c0c565b820191906000526020600020905b815481529060010190602001808311610bef57829003601f168201915b5050505050908060010154905082565b610c24610c9f565b600073ffffffffffffffffffffffffffffffffffffffff168173ffffffffffffffffffffffffffffffffffffffff1603610c93576040517f08c379a0000000000000000000000000000000000000000000000000000000008152600401610c8a90611952565b60405180910390fd5b610c9c81610d1d565b50565b610ca7610de1565b73ffffffffffffffffffffffffffffffffffffffff16610cc561076e565b73ffffffffffffffffffffffffffffffffffffffff1614610d1b576040517f08c379a0000000000000000000000000000000000000000000000000000000008152600401610d12906119be565b60405180910390fd5b565b60008060009054906101000a900473ffffffffffffffffffffffffffffffffffffffff169050816000806101000a81548173ffffffffffffffffffffffffffffffffffffffff021916908373ffffffffffffffffffffffffffffffffffffffff1602179055508173ffffffffffffffffffffffffffffffffffffffff168173ffffffffffffffffffffffffffffffffffffffff167f8be0079c531659141344cd1fd0a4f28419497f9722a3daafe3b4186f6b6457e060405160405180910390a35050565b600033905090565b604051806040016040528060608152602001600081525090565b6000604051905090565b600080fd5b600080fd5b6000819050919050565b610e2a81610e17565b8114610e3557600080fd5b50565b600081359050610e4781610e21565b92915050565b600060208284031215610e6357610e62610e0d565b5b6000610e7184828501610e38565b91505092915050565b600073ffffffffffffffffffffffffffffffffffffffff82169050919050565b6000610ea582610e7a565b9050919050565b610eb581610e9a565b82525050565b6000602082019050610ed06000830184610eac565b92915050565b610edf81610e17565b82525050565b6000604082019050610efa6000830185610ed6565b610f076020830184610ed6565b9392505050565b60008060408385031215610f2557610f24610e0d565b5b6000610f3385828601610e38565b9250506020610f4485828601610e38565b9150509250929050565b600081519050919050565b600082825260208201905092915050565b6000819050602082019050919050565b610f8381610e9a565b82525050565b6000610f958383610f7a565b60208301905092915050565b6000602082019050919050565b6000610fb982610f4e565b610fc38185610f59565b9350610fce83610f6a565b8060005b83811015610fff578151610fe68882610f89565b9750610ff183610fa1565b925050600181019050610fd2565b5085935050505092915050565b600060208201905081810360008301526110268184610fae565b905092915050565b60006020820190506110436000830184610ed6565b92915050565b600081519050919050565b600082825260208201905092915050565b6000819050602082019050919050565b600081519050919050565b600082825260208201905092915050565b60005b838110156110af578082015181840152602081019050611094565b60008484015250505050565b6000601f19601f8301169050919050565b60006110d782611075565b6110e18185611080565b93506110f1818560208601611091565b6110fa816110bb565b840191505092915050565b61110e81610e17565b82525050565b6000604083016000830151848203600086015261113182826110cc565b91505060208301516111466020860182611105565b508091505092915050565b600061115d8383611114565b905092915050565b6000602082019050919050565b600061117d82611049565b6111878185611054565b93508360208202850161119985611065565b8060005b858110156111d557848403895281516111b68582611151565b94506111c183611165565b925060208a0199505060018101905061119d565b50829750879550505050505092915050565b600060208201905081810360008301526112018184611172565b905092915050565b6000604083016000830151848203600086015261122682826110cc565b915050602083015161123b6020860182611105565b508091505092915050565b600060208201905081810360008301526112608184611209565b905092915050565b61127181610e9a565b811461127c57600080fd5b50565b60008135905061128e81611268565b92915050565b6000602082840312156112aa576112a9610e0d565b5b60006112b88482850161127f565b91505092915050565b60008115159050919050565b6112d6816112c1565b82525050565b60006060820190506112f160008301866112cd565b6112fe60208301856112cd565b61130b6040830184610ed6565b949350505050565b600080fd5b7f4e487b7100000000000000000000000000000000000000000000000000000000600052604160045260246000fd5b611350826110bb565b810181811067ffffffffffffffff8211171561136f5761136e611318565b5b80604052505050565b6000611382610e03565b905061138e8282611347565b919050565b600067ffffffffffffffff8211156113ae576113ad611318565b5b602082029050602081019050919050565b600080fd5b60006113d76113d284611393565b611378565b905080838252602082019050602084028301858111156113fa576113f96113bf565b5b835b81811015611423578061140f888261127f565b8452602084019350506020810190506113fc565b5050509392505050565b600082601f83011261144257611441611313565b5b81356114528482602086016113c4565b91505092915050565b60006020828403121561147157611470610e0d565b5b600082013567ffffffffffffffff81111561148f5761148e610e12565b5b61149b8482850161142d565b91505092915050565b600082825260208201905092915050565b60006114c082611075565b6114ca81856114a4565b93506114da818560208601611091565b6114e3816110bb565b840191505092915050565b6000604082019050818103600083015261150881856114b5565b90506115176020830184610ed6565b9392505050565b7f566f74696e67206973206e6f7420696e2070726f636573732e00000000000000600082015250565b60006115546019836114a4565b915061155f8261151e565b602082019050919050565b6000602082019050818103600083015261158381611547565b9050919050565b7f486173206e6f20726967687420746f20766f7465000000000000000000000000600082015250565b60006115c06014836114a4565b91506115cb8261158a565b602082019050919050565b600060208201905081810360008301526115ef816115b3565b9050919050565b7f416c726561647920766f7465642e000000000000000000000000000000000000600082015250565b600061162c600e836114a4565b9150611637826115f6565b602082019050919050565b6000602082019050818103600083015261165b8161161f565b9050919050565b7f4e487b7100000000000000000000000000000000000000000000000000000000600052603260045260246000fd5b7f4e487b7100000000000000000000000000000000000000000000000000000000600052601160045260246000fd5b60006116cb82610e17565b91507fffffffffffffffffffffffffffffffffffffffffffffffffffffffffffffffff82036116fd576116fc611691565b5b600182019050919050565b600061171382610e17565b915061171e83610e17565b925082820390508181111561173657611735611691565b5b92915050565b7f4e487b7100000000000000000000000000000000000000000000000000000000600052602260045260246000fd5b6000600282049050600182168061178357607f821691505b6020821081036117965761179561173c565b5b50919050565b7f566f74696e6720616c726561647920737461727465642e000000000000000000600082015250565b60006117d26017836114a4565b91506117dd8261179c565b602082019050919050565b60006020820190508181036000830152611801816117c5565b9050919050565b7f5374617274206461746520697320696e20746865207061737400000000000000600082015250565b600061183e6019836114a4565b915061184982611808565b602082019050919050565b6000602082019050818103600083015261186d81611831565b9050919050565b7f496e76616c696420646174657320706173736564000000000000000000000000600082015250565b60006118aa6014836114a4565b91506118b582611874565b602082019050919050565b600060208201905081810360008301526118d98161189d565b9050919050565b7f4f776e61626c653a206e6577206f776e657220697320746865207a65726f206160008201527f6464726573730000000000000000000000000000000000000000000000000000602082015250565b600061193c6026836114a4565b9150611947826118e0565b604082019050919050565b6000602082019050818103600083015261196b8161192f565b9050919050565b7f4f776e61626c653a2063616c6c6572206973206e6f7420746865206f776e6572600082015250565b60006119a86020836114a4565b91506119b382611972565b602082019050919050565b600060208201905081810360008301526119d78161199b565b905091905056fea2646970667358221220f8ba70bec697e50b52a4a84f2130228ed3da739f8419cd84873241f372051fad64736f6c63430008110033",
  "linkReferences": {},
  "deployedLinkReferences": {}
}