{
  "_format": "hh-sol-artifact-1",
  "contractName": "Elections",
  "sourceName": "contracts/Elections.sol",
  "abi": [
    {
      "inputs": [
        {
          "internalType": "uint256",
          "name": "votingStart",
          "type": "uint256"
        },
        {
          "internalType": "uint256",
          "name": "votingEnd",
          "type": "uint256"
        },
        {
          "internalType": "string[]",
          "name": "options",
          "type": "string[]"
        }
      ],
      "stateMutability": "nonpayable",
      "type": "constructor"
    },
    {
      "anonymous": false,
      "inputs": [
        {
          "indexed": true,
          "internalType": "address",
          "name": "previousOwner",
          "type": "address"
        },
        {
          "indexed": true,
          "internalType": "address",
          "name": "newOwner",
          "type": "address"
        }
      ],
      "name": "OwnershipTransferred",
      "type": "event"
    },
    {
      "inputs": [
        {
          "internalType": "uint256",
          "name": "start",
          "type": "uint256"
        },
        {
          "internalType": "uint256",
          "name": "limit",
          "type": "uint256"
        }
      ],
      "name": "getRegisteredVoters",
      "outputs": [
        {
          "internalType": "address[]",
          "name": "",
          "type": "address[]"
        }
      ],
      "stateMutability": "view",
      "type": "function"
    },
    {
      "inputs": [],
      "name": "getVotingOptions",
      "outputs": [
        {
          "components": [
            {
              "internalType": "string",
              "name": "name",
              "type": "string"
            },
            {
              "internalType": "uint256",
              "name": "votes",
              "type": "uint256"
            }
          ],
          "internalType": "struct VoteOption[]",
          "name": "",
          "type": "tuple[]"
        }
      ],
      "stateMutability": "view",
      "type": "function"
    },
    {
      "inputs": [],
      "name": "owner",
      "outputs": [
        {
          "internalType": "address",
          "name": "",
          "type": "address"
        }
      ],
      "stateMutability": "view",
      "type": "function"
    },
    {
      "inputs": [
        {
          "internalType": "address[]",
          "name": "addresses",
          "type": "address[]"
        }
      ],
      "name": "registerVoters",
      "outputs": [],
      "stateMutability": "nonpayable",
      "type": "function"
    },
    {
      "inputs": [
        {
          "internalType": "uint256",
          "name": "",
          "type": "uint256"
        }
      ],
      "name": "registeredVoters",
      "outputs": [
        {
          "internalType": "address",
          "name": "",
          "type": "address"
        }
      ],
      "stateMutability": "view",
      "type": "function"
    },
    {
      "inputs": [],
      "name": "renounceOwnership",
      "outputs": [],
      "stateMutability": "nonpayable",
      "type": "function"
    },
    {
      "inputs": [
        {
          "internalType": "uint256",
          "name": "votingStart",
          "type": "uint256"
        },
        {
          "internalType": "uint256",
          "name": "votingEnd",
          "type": "uint256"
        }
      ],
      "name": "setVotingPeriod",
      "outputs": [],
      "stateMutability": "nonpayable",
      "type": "function"
    },
    {
      "inputs": [
        {
          "internalType": "address",
          "name": "newOwner",
          "type": "address"
        }
      ],
      "name": "transferOwnership",
      "outputs": [],
      "stateMutability": "nonpayable",
      "type": "function"
    },
    {
      "inputs": [
        {
          "internalType": "uint256",
          "name": "voteOption",
          "type": "uint256"
        }
      ],
      "name": "vote",
      "outputs": [],
      "stateMutability": "nonpayable",
      "type": "function"
    },
    {
      "inputs": [
        {
          "internalType": "address",
          "name": "",
          "type": "address"
        }
      ],
      "name": "voters",
      "outputs": [
        {
          "internalType": "bool",
          "name": "registered",
          "type": "bool"
        },
        {
          "internalType": "bool",
          "name": "voted",
          "type": "bool"
        },
        {
          "internalType": "uint256",
          "name": "vote",
          "type": "uint256"
        }
      ],
      "stateMutability": "view",
      "type": "function"
    },
    {
      "inputs": [
        {
          "internalType": "uint256",
          "name": "",
          "type": "uint256"
        }
      ],
      "name": "votingOptions",
      "outputs": [
        {
          "internalType": "string",
          "name": "name",
          "type": "string"
        },
        {
          "internalType": "uint256",
          "name": "votes",
          "type": "uint256"
        }
      ],
      "stateMutability": "view",
      "type": "function"
    },
    {
      "inputs": [],
      "name": "votingParameters",
      "outputs": [
        {
          "internalType": "uint256",
          "name": "start",
          "type": "uint256"
        },
        {
          "internalType": "uint256",
          "name": "end",
          "type": "uint256"
        }
      ],
      "stateMutability": "view",
      "type": "function"
    },
    {
      "inputs": [],
      "name": "winningOption",
      "outputs": [
        {
          "components": [
            {
              "internalType": "string",
              "name": "name",
              "type": "string"
            },
            {
              "internalType": "uint256",
              "name": "votes",
              "type": "uint256"
            }
          ],
          "internalType": "struct VoteOption",
          "name": "",
          "type": "tuple"
        }
      ],
      "stateMutability": "view",
      "type": "function"
    },
    {
      "inputs": [],
      "name": "winningOptionIndex",
      "outputs": [
        {
          "internalType": "uint256",
          "name": "_winningOptionIndex",
          "type": "uint256"
        }
      ],
      "stateMutability": "view",
      "type": "function"
    }
  ],
  "bytecode": "0x60806040523480156200001157600080fd5b50604051620025193803806200251983398181016040528101906200003791906200053a565b620000576200004b620001a460201b60201c565b620001ac60201b60201c565b60005b8151811015620000fc5760036040518060400160405280848481518110620000875762000086620005b5565b5b60200260200101518152602001600081525090806001815401808255809150506001900390600052602060002090600202016000909190919091506000820151816000019081620000d9919062000825565b506020820151816001015550508080620000f3906200093b565b9150506200005a565b5082421062000142576040517f08c379a00000000000000000000000000000000000000000000000000000000081526004016200013990620009e9565b60405180910390fd5b81831062000187576040517f08c379a00000000000000000000000000000000000000000000000000000000081526004016200017e9062000a5b565b60405180910390fd5b826004600001819055508160046001018190555050505062000a7d565b600033905090565b60008060009054906101000a900473ffffffffffffffffffffffffffffffffffffffff169050816000806101000a81548173ffffffffffffffffffffffffffffffffffffffff021916908373ffffffffffffffffffffffffffffffffffffffff1602179055508173ffffffffffffffffffffffffffffffffffffffff168173ffffffffffffffffffffffffffffffffffffffff167f8be0079c531659141344cd1fd0a4f28419497f9722a3daafe3b4186f6b6457e060405160405180910390a35050565b6000604051905090565b600080fd5b600080fd5b6000819050919050565b620002998162000284565b8114620002a557600080fd5b50565b600081519050620002b9816200028e565b92915050565b600080fd5b6000601f19601f8301169050919050565b7f4e487b7100000000000000000000000000000000000000000000000000000000600052604160045260246000fd5b6200030f82620002c4565b810181811067ffffffffffffffff82111715620003315762000330620002d5565b5b80604052505050565b60006200034662000270565b905062000354828262000304565b919050565b600067ffffffffffffffff821115620003775762000376620002d5565b5b602082029050602081019050919050565b600080fd5b600080fd5b600067ffffffffffffffff821115620003b057620003af620002d5565b5b620003bb82620002c4565b9050602081019050919050565b60005b83811015620003e8578082015181840152602081019050620003cb565b60008484015250505050565b60006200040b620004058462000392565b6200033a565b9050828152602081018484840111156200042a57620004296200038d565b5b62000437848285620003c8565b509392505050565b600082601f830112620004575762000456620002bf565b5b815162000469848260208601620003f4565b91505092915050565b600062000489620004838462000359565b6200033a565b90508083825260208201905060208402830185811115620004af57620004ae62000388565b5b835b81811015620004fd57805167ffffffffffffffff811115620004d857620004d7620002bf565b5b808601620004e789826200043f565b85526020850194505050602081019050620004b1565b5050509392505050565b600082601f8301126200051f576200051e620002bf565b5b81516200053184826020860162000472565b91505092915050565b6000806000606084860312156200055657620005556200027a565b5b60006200056686828701620002a8565b93505060206200057986828701620002a8565b925050604084015167ffffffffffffffff8111156200059d576200059c6200027f565b5b620005ab8682870162000507565b9150509250925092565b7f4e487b7100000000000000000000000000000000000000000000000000000000600052603260045260246000fd5b600081519050919050565b7f4e487b7100000000000000000000000000000000000000000000000000000000600052602260045260246000fd5b600060028204905060018216806200063757607f821691505b6020821081036200064d576200064c620005ef565b5b50919050565b60008190508160005260206000209050919050565b60006020601f8301049050919050565b600082821b905092915050565b600060088302620006b77fffffffffffffffffffffffffffffffffffffffffffffffffffffffffffffffff8262000678565b620006c3868362000678565b95508019841693508086168417925050509392505050565b6000819050919050565b60006200070662000700620006fa8462000284565b620006db565b62000284565b9050919050565b6000819050919050565b6200072283620006e5565b6200073a62000731826200070d565b84845462000685565b825550505050565b600090565b6200075162000742565b6200075e81848462000717565b505050565b5b8181101562000786576200077a60008262000747565b60018101905062000764565b5050565b601f821115620007d5576200079f8162000653565b620007aa8462000668565b81016020851015620007ba578190505b620007d2620007c98562000668565b83018262000763565b50505b505050565b600082821c905092915050565b6000620007fa60001984600802620007da565b1980831691505092915050565b6000620008158383620007e7565b9150826002028217905092915050565b6200083082620005e4565b67ffffffffffffffff8111156200084c576200084b620002d5565b5b6200085882546200061e565b620008658282856200078a565b600060209050601f8311600181146200089d576000841562000888578287015190505b62000894858262000807565b86555062000904565b601f198416620008ad8662000653565b60005b82811015620008d757848901518255600182019150602085019450602081019050620008b0565b86831015620008f75784890151620008f3601f891682620007e7565b8355505b6001600288020188555050505b505050505050565b7f4e487b7100000000000000000000000000000000000000000000000000000000600052601160045260246000fd5b6000620009488262000284565b91507fffffffffffffffffffffffffffffffffffffffffffffffffffffffffffffffff82036200097d576200097c6200090c565b5b600182019050919050565b600082825260208201905092915050565b7f5374617274206461746520697320696e20746865207061737400000000000000600082015250565b6000620009d160198362000988565b9150620009de8262000999565b602082019050919050565b6000602082019050818103600083015262000a0481620009c2565b9050919050565b7f496e76616c696420646174657320706173736564000000000000000000000000600082015250565b600062000a4360148362000988565b915062000a508262000a0b565b602082019050919050565b6000602082019050818103600083015262000a768162000a34565b9050919050565b611a8c8062000a8d6000396000f3fe608060405234801561001057600080fd5b50600436106100ea5760003560e01c80638da5cb5b1161008c578063a3ec138d11610066578063a3ec138d14610228578063d55ec9c11461025a578063dff67f6b14610276578063f2fde38b146102a7576100ea565b80638da5cb5b146101d05780639fde4ef8146101ee578063a15a36c71461020c576100ea565b80634ed7d5e4116100c85780634ed7d5e41461015a57806357cde0e61461018a578063715018a6146101a857806383859cf7146101b2576100ea565b80630121b93f146100ef5780632436e06b1461010b578063409443a01461013b575b600080fd5b61010960048036038101906101049190610e91565b6102c3565b005b61012560048036038101906101209190610e91565b610466565b6040516101329190610eff565b60405180910390f35b6101436104a5565b604051610151929190610f29565b60405180910390f35b610174600480360381019061016f9190610f52565b6104b7565b6040516101819190611050565b60405180910390f35b61019261061b565b60405161019f9190611072565b60405180910390f35b6101b06106a3565b005b6101ba6106b7565b6040516101c7919061122b565b60405180910390f35b6101d86107b2565b6040516101e59190610eff565b60405180910390f35b6101f66107db565b604051610203919061128a565b60405180910390f35b61022660048036038101906102219190610f52565b6108b8565b005b610242600480360381019061023d91906112d8565b6109a3565b60405161025193929190611320565b60405180910390f35b610274600480360381019061026f919061149f565b6109e7565b005b610290600480360381019061028b9190610e91565b610ba4565b60405161029e929190611532565b60405180910390f35b6102c160048036038101906102bc91906112d8565b610c60565b005b60046000015442101580156102dc575060046001015442105b61031b576040517f08c379a0000000000000000000000000000000000000000000000000000000008152600401610312906115ae565b60405180910390fd5b6000600160003373ffffffffffffffffffffffffffffffffffffffff1673ffffffffffffffffffffffffffffffffffffffff16815260200190815260200160002090508060000160009054906101000a900460ff166103af576040517f08c379a00000000000000000000000000000000000000000000000000000000081526004016103a69061161a565b60405180910390fd5b8060000160019054906101000a900460ff1615610401576040517f08c379a00000000000000000000000000000000000000000000000000000000081526004016103f890611686565b60405180910390fd5b60018160000160016101000a81548160ff0219169083151502179055508181600101819055506003828154811061043b5761043a6116a6565b5b9060005260206000209060020201600101600081548092919061045d90611704565b91905055505050565b6002818154811061047657600080fd5b906000526020600020016000915054906101000a900473ffffffffffffffffffffffffffffffffffffffff1681565b60048060000154908060010154905082565b60606000836002805490506104cc919061174c565b83116104d857826104ea565b836002805490506104e9919061174c565b5b905060008167ffffffffffffffff8111156105085761050761135c565b5b6040519080825280602002602001820160405280156105365781602001602082028036833780820191505090505b5090506000808690505b838761054c9190611780565b8110801561055e575060028054905081105b1561060e5760028181548110610577576105766116a6565b5b9060005260206000200160009054906101000a900473ffffffffffffffffffffffffffffffffffffffff168383806105ae90611704565b9450815181106105c1576105c06116a6565b5b602002602001019073ffffffffffffffffffffffffffffffffffffffff16908173ffffffffffffffffffffffffffffffffffffffff1681525050808061060690611704565b915050610540565b5081935050505092915050565b6000806000905060005b60038054905081101561069e578160038281548110610647576106466116a6565b5b906000526020600020906002020160010154111561068b5760038181548110610673576106726116a6565b5b90600052602060002090600202016001015491508092505b808061069690611704565b915050610625565b505090565b6106ab610ce3565b6106b56000610d61565b565b60606003805480602002602001604051908101604052809291908181526020016000905b828210156107a9578382906000526020600020906002020160405180604001604052908160008201805461070e906117e3565b80601f016020809104026020016040519081016040528092919081815260200182805461073a906117e3565b80156107875780601f1061075c57610100808354040283529160200191610787565b820191906000526020600020905b81548152906001019060200180831161076a57829003601f168201915b50505050508152602001600182015481525050815260200190600101906106db565b50505050905090565b60008060009054906101000a900473ffffffffffffffffffffffffffffffffffffffff16905090565b6107e3610e2d565b60036107ed61061b565b815481106107fe576107fd6116a6565b5b9060005260206000209060020201604051806040016040529081600082018054610827906117e3565b80601f0160208091040260200160405190810160405280929190818152602001828054610853906117e3565b80156108a05780601f10610875576101008083540402835291602001916108a0565b820191906000526020600020905b81548152906001019060200180831161088357829003601f168201915b50505050508152602001600182015481525050905090565b6108c0610ce3565b6004600001544210610907576040517f08c379a00000000000000000000000000000000000000000000000000000000081526004016108fe90611860565b60405180910390fd5b814210610949576040517f08c379a0000000000000000000000000000000000000000000000000000000008152600401610940906118cc565b60405180910390fd5b80821061098b576040517f08c379a000000000000000000000000000000000000000000000000000000000815260040161098290611938565b60405180910390fd5b81600460000181905550806004600101819055505050565b60016020528060005260406000206000915090508060000160009054906101000a900460ff16908060000160019054906101000a900460ff16908060010154905083565b6109ef610ce3565b6004600001544210610a36576040517f08c379a0000000000000000000000000000000000000000000000000000000008152600401610a2d90611860565b60405180910390fd5b60005b8151811015610ba05760006040518060600160405280600115158152602001600015158152602001600081525090508060016000858581518110610a8057610a7f6116a6565b5b602002602001015173ffffffffffffffffffffffffffffffffffffffff1673ffffffffffffffffffffffffffffffffffffffff16815260200190815260200160002060008201518160000160006101000a81548160ff02191690831515021790555060208201518160000160016101000a81548160ff021916908315150217905550604082015181600101559050506002838381518110610b2457610b236116a6565b5b60200260200101519080600181540180825580915050600190039060005260206000200160009091909190916101000a81548173ffffffffffffffffffffffffffffffffffffffff021916908373ffffffffffffffffffffffffffffffffffffffff160217905550508080610b9890611704565b915050610a39565b5050565b60038181548110610bb457600080fd5b9060005260206000209060020201600091509050806000018054610bd7906117e3565b80601f0160208091040260200160405190810160405280929190818152602001828054610c03906117e3565b8015610c505780601f10610c2557610100808354040283529160200191610c50565b820191906000526020600020905b815481529060010190602001808311610c3357829003601f168201915b5050505050908060010154905082565b610c68610ce3565b600073ffffffffffffffffffffffffffffffffffffffff168173ffffffffffffffffffffffffffffffffffffffff1603610cd7576040517f08c379a0000000000000000000000000000000000000000000000000000000008152600401610cce906119ca565b60405180910390fd5b610ce081610d61565b50565b610ceb610e25565b73ffffffffffffffffffffffffffffffffffffffff16610d096107b2565b73ffffffffffffffffffffffffffffffffffffffff1614610d5f576040517f08c379a0000000000000000000000000000000000000000000000000000000008152600401610d5690611a36565b60405180910390fd5b565b60008060009054906101000a900473ffffffffffffffffffffffffffffffffffffffff169050816000806101000a81548173ffffffffffffffffffffffffffffffffffffffff021916908373ffffffffffffffffffffffffffffffffffffffff1602179055508173ffffffffffffffffffffffffffffffffffffffff168173ffffffffffffffffffffffffffffffffffffffff167f8be0079c531659141344cd1fd0a4f28419497f9722a3daafe3b4186f6b6457e060405160405180910390a35050565b600033905090565b604051806040016040528060608152602001600081525090565b6000604051905090565b600080fd5b600080fd5b6000819050919050565b610e6e81610e5b565b8114610e7957600080fd5b50565b600081359050610e8b81610e65565b92915050565b600060208284031215610ea757610ea6610e51565b5b6000610eb584828501610e7c565b91505092915050565b600073ffffffffffffffffffffffffffffffffffffffff82169050919050565b6000610ee982610ebe565b9050919050565b610ef981610ede565b82525050565b6000602082019050610f146000830184610ef0565b92915050565b610f2381610e5b565b82525050565b6000604082019050610f3e6000830185610f1a565b610f4b6020830184610f1a565b9392505050565b60008060408385031215610f6957610f68610e51565b5b6000610f7785828601610e7c565b9250506020610f8885828601610e7c565b9150509250929050565b600081519050919050565b600082825260208201905092915050565b6000819050602082019050919050565b610fc781610ede565b82525050565b6000610fd98383610fbe565b60208301905092915050565b6000602082019050919050565b6000610ffd82610f92565b6110078185610f9d565b935061101283610fae565b8060005b8381101561104357815161102a8882610fcd565b975061103583610fe5565b925050600181019050611016565b5085935050505092915050565b6000602082019050818103600083015261106a8184610ff2565b905092915050565b60006020820190506110876000830184610f1a565b92915050565b600081519050919050565b600082825260208201905092915050565b6000819050602082019050919050565b600081519050919050565b600082825260208201905092915050565b60005b838110156110f35780820151818401526020810190506110d8565b60008484015250505050565b6000601f19601f8301169050919050565b600061111b826110b9565b61112581856110c4565b93506111358185602086016110d5565b61113e816110ff565b840191505092915050565b61115281610e5b565b82525050565b600060408301600083015184820360008601526111758282611110565b915050602083015161118a6020860182611149565b508091505092915050565b60006111a18383611158565b905092915050565b6000602082019050919050565b60006111c18261108d565b6111cb8185611098565b9350836020820285016111dd856110a9565b8060005b8581101561121957848403895281516111fa8582611195565b9450611205836111a9565b925060208a019950506001810190506111e1565b50829750879550505050505092915050565b6000602082019050818103600083015261124581846111b6565b905092915050565b6000604083016000830151848203600086015261126a8282611110565b915050602083015161127f6020860182611149565b508091505092915050565b600060208201905081810360008301526112a4818461124d565b905092915050565b6112b581610ede565b81146112c057600080fd5b50565b6000813590506112d2816112ac565b92915050565b6000602082840312156112ee576112ed610e51565b5b60006112fc848285016112c3565b91505092915050565b60008115159050919050565b61131a81611305565b82525050565b60006060820190506113356000830186611311565b6113426020830185611311565b61134f6040830184610f1a565b949350505050565b600080fd5b7f4e487b7100000000000000000000000000000000000000000000000000000000600052604160045260246000fd5b611394826110ff565b810181811067ffffffffffffffff821117156113b3576113b261135c565b5b80604052505050565b60006113c6610e47565b90506113d2828261138b565b919050565b600067ffffffffffffffff8211156113f2576113f161135c565b5b602082029050602081019050919050565b600080fd5b600061141b611416846113d7565b6113bc565b9050808382526020820190506020840283018581111561143e5761143d611403565b5b835b81811015611467578061145388826112c3565b845260208401935050602081019050611440565b5050509392505050565b600082601f83011261148657611485611357565b5b8135611496848260208601611408565b91505092915050565b6000602082840312156114b5576114b4610e51565b5b600082013567ffffffffffffffff8111156114d3576114d2610e56565b5b6114df84828501611471565b91505092915050565b600082825260208201905092915050565b6000611504826110b9565b61150e81856114e8565b935061151e8185602086016110d5565b611527816110ff565b840191505092915050565b6000604082019050818103600083015261154c81856114f9565b905061155b6020830184610f1a565b9392505050565b7f566f74696e67206973206e6f7420696e2070726f636573732e00000000000000600082015250565b60006115986019836114e8565b91506115a382611562565b602082019050919050565b600060208201905081810360008301526115c78161158b565b9050919050565b7f486173206e6f20726967687420746f20766f7465000000000000000000000000600082015250565b60006116046014836114e8565b915061160f826115ce565b602082019050919050565b60006020820190508181036000830152611633816115f7565b9050919050565b7f416c726561647920766f7465642e000000000000000000000000000000000000600082015250565b6000611670600e836114e8565b915061167b8261163a565b602082019050919050565b6000602082019050818103600083015261169f81611663565b9050919050565b7f4e487b7100000000000000000000000000000000000000000000000000000000600052603260045260246000fd5b7f4e487b7100000000000000000000000000000000000000000000000000000000600052601160045260246000fd5b600061170f82610e5b565b91507fffffffffffffffffffffffffffffffffffffffffffffffffffffffffffffffff8203611741576117406116d5565b5b600182019050919050565b600061175782610e5b565b915061176283610e5b565b925082820390508181111561177a576117796116d5565b5b92915050565b600061178b82610e5b565b915061179683610e5b565b92508282019050808211156117ae576117ad6116d5565b5b92915050565b7f4e487b7100000000000000000000000000000000000000000000000000000000600052602260045260246000fd5b600060028204905060018216806117fb57607f821691505b60208210810361180e5761180d6117b4565b5b50919050565b7f566f74696e6720616c726561647920737461727465642e000000000000000000600082015250565b600061184a6017836114e8565b915061185582611814565b602082019050919050565b600060208201905081810360008301526118798161183d565b9050919050565b7f5374617274206461746520697320696e20746865207061737400000000000000600082015250565b60006118b66019836114e8565b91506118c182611880565b602082019050919050565b600060208201905081810360008301526118e5816118a9565b9050919050565b7f496e76616c696420646174657320706173736564000000000000000000000000600082015250565b60006119226014836114e8565b915061192d826118ec565b602082019050919050565b6000602082019050818103600083015261195181611915565b9050919050565b7f4f776e61626c653a206e6577206f776e657220697320746865207a65726f206160008201527f6464726573730000000000000000000000000000000000000000000000000000602082015250565b60006119b46026836114e8565b91506119bf82611958565b604082019050919050565b600060208201905081810360008301526119e3816119a7565b9050919050565b7f4f776e61626c653a2063616c6c6572206973206e6f7420746865206f776e6572600082015250565b6000611a206020836114e8565b9150611a2b826119ea565b602082019050919050565b60006020820190508181036000830152611a4f81611a13565b905091905056fea2646970667358221220b9537b85a3413a8cc160ed5e1ef6a228f533f141d65c4ba24d0dd52a9f10940364736f6c63430008110033",
  "linkReferences": {},
  "deployedLinkReferences": {}
}