{
  "_format": "hh-sol-artifact-1",
  "contractName": "Elections",
  "sourceName": "contracts/Elections.sol",
  "abi": [
    {
      "inputs": [
        {
          "internalType": "uint256",
          "name": "votingStart",
          "type": "uint256"
        },
        {
          "internalType": "uint256",
          "name": "votingEnd",
          "type": "uint256"
        },
        {
          "internalType": "string[]",
          "name": "options",
          "type": "string[]"
        }
      ],
      "stateMutability": "nonpayable",
      "type": "constructor"
    },
    {
      "anonymous": false,
      "inputs": [
        {
          "indexed": false,
          "internalType": "string[]",
          "name": "options",
          "type": "string[]"
        }
      ],
      "name": "NewVoting",
      "type": "event"
    },
    {
      "anonymous": false,
      "inputs": [
        {
          "indexed": true,
          "internalType": "address",
          "name": "previousOwner",
          "type": "address"
        },
        {
          "indexed": true,
          "internalType": "address",
          "name": "newOwner",
          "type": "address"
        }
      ],
      "name": "OwnershipTransferred",
      "type": "event"
    },
    {
      "anonymous": false,
      "inputs": [
        {
          "indexed": true,
          "internalType": "address",
          "name": "voter",
          "type": "address"
        }
      ],
      "name": "RegisterVoter",
      "type": "event"
    },
    {
      "anonymous": false,
      "inputs": [
        {
          "indexed": true,
          "internalType": "address",
          "name": "voter",
          "type": "address"
        },
        {
          "indexed": true,
          "internalType": "uint256",
          "name": "option",
          "type": "uint256"
        }
      ],
      "name": "Vote",
      "type": "event"
    },
    {
      "anonymous": false,
      "inputs": [
        {
          "indexed": false,
          "internalType": "uint256",
          "name": "start",
          "type": "uint256"
        },
        {
          "indexed": false,
          "internalType": "uint256",
          "name": "end",
          "type": "uint256"
        }
      ],
      "name": "VotingPeriodChange",
      "type": "event"
    },
    {
      "inputs": [],
      "name": "EIP712Domain",
      "outputs": [
        {
          "internalType": "string",
          "name": "",
          "type": "string"
        }
      ],
      "stateMutability": "view",
      "type": "function"
    },
    {
      "inputs": [],
      "name": "EIP712DomainVersion",
      "outputs": [
        {
          "internalType": "string",
          "name": "",
          "type": "string"
        }
      ],
      "stateMutability": "view",
      "type": "function"
    },
    {
      "inputs": [
        {
          "internalType": "uint8",
          "name": "v",
          "type": "uint8"
        },
        {
          "internalType": "bytes32",
          "name": "r",
          "type": "bytes32"
        },
        {
          "internalType": "bytes32",
          "name": "s",
          "type": "bytes32"
        },
        {
          "internalType": "address",
          "name": "sender",
          "type": "address"
        },
        {
          "internalType": "uint256",
          "name": "deadline",
          "type": "uint256"
        },
        {
          "internalType": "uint256",
          "name": "voteOption",
          "type": "uint256"
        }
      ],
      "name": "eip712Vote",
      "outputs": [],
      "stateMutability": "nonpayable",
      "type": "function"
    },
    {
      "inputs": [
        {
          "internalType": "uint256",
          "name": "start",
          "type": "uint256"
        },
        {
          "internalType": "uint256",
          "name": "limit",
          "type": "uint256"
        }
      ],
      "name": "getRegisteredVoters",
      "outputs": [
        {
          "internalType": "address[]",
          "name": "",
          "type": "address[]"
        }
      ],
      "stateMutability": "view",
      "type": "function"
    },
    {
      "inputs": [],
      "name": "getVotingOptions",
      "outputs": [
        {
          "components": [
            {
              "internalType": "string",
              "name": "name",
              "type": "string"
            },
            {
              "internalType": "uint256",
              "name": "votes",
              "type": "uint256"
            }
          ],
          "internalType": "struct VoteOption[]",
          "name": "",
          "type": "tuple[]"
        }
      ],
      "stateMutability": "view",
      "type": "function"
    },
    {
      "inputs": [],
      "name": "owner",
      "outputs": [
        {
          "internalType": "address",
          "name": "",
          "type": "address"
        }
      ],
      "stateMutability": "view",
      "type": "function"
    },
    {
      "inputs": [
        {
          "internalType": "address[]",
          "name": "addresses",
          "type": "address[]"
        }
      ],
      "name": "registerVoters",
      "outputs": [],
      "stateMutability": "nonpayable",
      "type": "function"
    },
    {
      "inputs": [
        {
          "internalType": "uint256",
          "name": "",
          "type": "uint256"
        }
      ],
      "name": "registeredVoters",
      "outputs": [
        {
          "internalType": "address",
          "name": "",
          "type": "address"
        }
      ],
      "stateMutability": "view",
      "type": "function"
    },
    {
      "inputs": [],
      "name": "renounceOwnership",
      "outputs": [],
      "stateMutability": "nonpayable",
      "type": "function"
    },
    {
      "inputs": [
        {
          "internalType": "uint256",
          "name": "votingStart",
          "type": "uint256"
        },
        {
          "internalType": "uint256",
          "name": "votingEnd",
          "type": "uint256"
        }
      ],
      "name": "setVotingPeriod",
      "outputs": [],
      "stateMutability": "nonpayable",
      "type": "function"
    },
    {
      "inputs": [
        {
          "internalType": "address",
          "name": "newOwner",
          "type": "address"
        }
      ],
      "name": "transferOwnership",
      "outputs": [],
      "stateMutability": "nonpayable",
      "type": "function"
    },
    {
      "inputs": [
        {
          "internalType": "uint256",
          "name": "voteOption",
          "type": "uint256"
        }
      ],
      "name": "vote",
      "outputs": [],
      "stateMutability": "nonpayable",
      "type": "function"
    },
    {
      "inputs": [
        {
          "internalType": "address",
          "name": "",
          "type": "address"
        }
      ],
      "name": "voters",
      "outputs": [
        {
          "internalType": "bool",
          "name": "registered",
          "type": "bool"
        },
        {
          "internalType": "bool",
          "name": "voted",
          "type": "bool"
        },
        {
          "internalType": "uint256",
          "name": "vote",
          "type": "uint256"
        }
      ],
      "stateMutability": "view",
      "type": "function"
    },
    {
      "inputs": [
        {
          "internalType": "uint256",
          "name": "",
          "type": "uint256"
        }
      ],
      "name": "votingOptions",
      "outputs": [
        {
          "internalType": "string",
          "name": "name",
          "type": "string"
        },
        {
          "internalType": "uint256",
          "name": "votes",
          "type": "uint256"
        }
      ],
      "stateMutability": "view",
      "type": "function"
    },
    {
      "inputs": [],
      "name": "votingParameters",
      "outputs": [
        {
          "internalType": "uint256",
          "name": "start",
          "type": "uint256"
        },
        {
          "internalType": "uint256",
          "name": "end",
          "type": "uint256"
        }
      ],
      "stateMutability": "view",
      "type": "function"
    },
    {
      "inputs": [],
      "name": "winningOption",
      "outputs": [
        {
          "components": [
            {
              "internalType": "string",
              "name": "name",
              "type": "string"
            },
            {
              "internalType": "uint256",
              "name": "votes",
              "type": "uint256"
            }
          ],
          "internalType": "struct VoteOption",
          "name": "",
          "type": "tuple"
        }
      ],
      "stateMutability": "view",
      "type": "function"
    },
    {
      "inputs": [],
      "name": "winningOptionIndex",
      "outputs": [
        {
          "internalType": "uint256",
          "name": "_winningOptionIndex",
          "type": "uint256"
        }
      ],
      "stateMutability": "view",
      "type": "function"
    }
  ],
  "bytecode": "0x60806040523480156200001157600080fd5b5060405162002fe538038062002fe58339818101604052810190620000379190620005ae565b620000576200004b6200021860201b60201c565b6200022060201b60201c565b60005b8151811015620000fc576003604051806040016040528084848151811062000087576200008662000629565b5b60200260200101518152602001600081525090806001815401808255809150506001900390600052602060002090600202016000909190919091506000820151816000019081620000d9919062000899565b506020820151816001015550508080620000f390620009af565b9150506200005a565b5082421062000142576040517f08c379a0000000000000000000000000000000000000000000000000000000008152600401620001399062000a5d565b60405180910390fd5b81831062000187576040517f08c379a00000000000000000000000000000000000000000000000000000000081526004016200017e9062000acf565b60405180910390fd5b82600460000181905550816004600101819055507fa12b38d711244e995608ff936ce5530a28ed8bf7c7681ca9bb87e8a7edd34a5981604051620001cc919062000c13565b60405180910390a17fb2d78cec0582b6c1582ce85ec169d7eef7c2f30157784daf596227f6a913a56683836040516200020792919062000c48565b60405180910390a150505062000c75565b600033905090565b60008060009054906101000a900473ffffffffffffffffffffffffffffffffffffffff169050816000806101000a81548173ffffffffffffffffffffffffffffffffffffffff021916908373ffffffffffffffffffffffffffffffffffffffff1602179055508173ffffffffffffffffffffffffffffffffffffffff168173ffffffffffffffffffffffffffffffffffffffff167f8be0079c531659141344cd1fd0a4f28419497f9722a3daafe3b4186f6b6457e060405160405180910390a35050565b6000604051905090565b600080fd5b600080fd5b6000819050919050565b6200030d81620002f8565b81146200031957600080fd5b50565b6000815190506200032d8162000302565b92915050565b600080fd5b6000601f19601f8301169050919050565b7f4e487b7100000000000000000000000000000000000000000000000000000000600052604160045260246000fd5b620003838262000338565b810181811067ffffffffffffffff82111715620003a557620003a462000349565b5b80604052505050565b6000620003ba620002e4565b9050620003c8828262000378565b919050565b600067ffffffffffffffff821115620003eb57620003ea62000349565b5b602082029050602081019050919050565b600080fd5b600080fd5b600067ffffffffffffffff82111562000424576200042362000349565b5b6200042f8262000338565b9050602081019050919050565b60005b838110156200045c5780820151818401526020810190506200043f565b60008484015250505050565b60006200047f620004798462000406565b620003ae565b9050828152602081018484840111156200049e576200049d62000401565b5b620004ab8482856200043c565b509392505050565b600082601f830112620004cb57620004ca62000333565b5b8151620004dd84826020860162000468565b91505092915050565b6000620004fd620004f784620003cd565b620003ae565b90508083825260208201905060208402830185811115620005235762000522620003fc565b5b835b818110156200057157805167ffffffffffffffff8111156200054c576200054b62000333565b5b8086016200055b8982620004b3565b8552602085019450505060208101905062000525565b5050509392505050565b600082601f83011262000593576200059262000333565b5b8151620005a5848260208601620004e6565b91505092915050565b600080600060608486031215620005ca57620005c9620002ee565b5b6000620005da868287016200031c565b9350506020620005ed868287016200031c565b925050604084015167ffffffffffffffff811115620006115762000610620002f3565b5b6200061f868287016200057b565b9150509250925092565b7f4e487b7100000000000000000000000000000000000000000000000000000000600052603260045260246000fd5b600081519050919050565b7f4e487b7100000000000000000000000000000000000000000000000000000000600052602260045260246000fd5b60006002820490506001821680620006ab57607f821691505b602082108103620006c157620006c062000663565b5b50919050565b60008190508160005260206000209050919050565b60006020601f8301049050919050565b600082821b905092915050565b6000600883026200072b7fffffffffffffffffffffffffffffffffffffffffffffffffffffffffffffffff82620006ec565b620007378683620006ec565b95508019841693508086168417925050509392505050565b6000819050919050565b60006200077a620007746200076e84620002f8565b6200074f565b620002f8565b9050919050565b6000819050919050565b620007968362000759565b620007ae620007a58262000781565b848454620006f9565b825550505050565b600090565b620007c5620007b6565b620007d28184846200078b565b505050565b5b81811015620007fa57620007ee600082620007bb565b600181019050620007d8565b5050565b601f82111562000849576200081381620006c7565b6200081e84620006dc565b810160208510156200082e578190505b620008466200083d85620006dc565b830182620007d7565b50505b505050565b600082821c905092915050565b60006200086e600019846008026200084e565b1980831691505092915050565b60006200088983836200085b565b9150826002028217905092915050565b620008a48262000658565b67ffffffffffffffff811115620008c057620008bf62000349565b5b620008cc825462000692565b620008d9828285620007fe565b600060209050601f831160018114620009115760008415620008fc578287015190505b6200090885826200087b565b86555062000978565b601f1984166200092186620006c7565b60005b828110156200094b5784890151825560018201915060208501945060208101905062000924565b868310156200096b578489015162000967601f8916826200085b565b8355505b6001600288020188555050505b505050505050565b7f4e487b7100000000000000000000000000000000000000000000000000000000600052601160045260246000fd5b6000620009bc82620002f8565b91507fffffffffffffffffffffffffffffffffffffffffffffffffffffffffffffffff8203620009f157620009f062000980565b5b600182019050919050565b600082825260208201905092915050565b7f5374617274206461746520697320696e20746865207061737400000000000000600082015250565b600062000a45601983620009fc565b915062000a528262000a0d565b602082019050919050565b6000602082019050818103600083015262000a788162000a36565b9050919050565b7f496e76616c696420646174657320706173736564000000000000000000000000600082015250565b600062000ab7601483620009fc565b915062000ac48262000a7f565b602082019050919050565b6000602082019050818103600083015262000aea8162000aa8565b9050919050565b600081519050919050565b600082825260208201905092915050565b6000819050602082019050919050565b600082825260208201905092915050565b600062000b3b8262000658565b62000b47818562000b1d565b935062000b598185602086016200043c565b62000b648162000338565b840191505092915050565b600062000b7d838362000b2e565b905092915050565b6000602082019050919050565b600062000b9f8262000af1565b62000bab818562000afc565b93508360208202850162000bbf8562000b0d565b8060005b8581101562000c01578484038952815162000bdf858262000b6f565b945062000bec8362000b85565b925060208a0199505060018101905062000bc3565b50829750879550505050505092915050565b6000602082019050818103600083015262000c2f818462000b92565b905092915050565b62000c4281620002f8565b82525050565b600060408201905062000c5f600083018562000c37565b62000c6e602083018462000c37565b9392505050565b6123608062000c856000396000f3fe608060405234801561001057600080fd5b506004361061010b5760003560e01c806383859cf7116100a2578063a3ec138d11610071578063a3ec138d14610285578063a52edbac146102b7578063d55ec9c1146102d3578063dff67f6b146102ef578063f2fde38b146103205761010b565b806383859cf71461020f5780638da5cb5b1461022d5780639fde4ef81461024b578063a15a36c7146102695761010b565b8063409443a0116100de578063409443a0146101985780634ed7d5e4146101b757806357cde0e6146101e7578063715018a6146102055761010b565b80630121b93f146101105780631e7439a31461012c57806320bcc3f81461014a5780632436e06b14610168575b600080fd5b61012a60048036038101906101259190611359565b61033c565b005b610134610349565b6040516101419190611416565b60405180910390f35b610152610382565b60405161015f9190611416565b60405180910390f35b610182600480360381019061017d9190611359565b6103bb565b60405161018f9190611479565b60405180910390f35b6101a06103fa565b6040516101ae9291906114a3565b60405180910390f35b6101d160048036038101906101cc91906114cc565b61040c565b6040516101de91906115ca565b60405180910390f35b6101ef610570565b6040516101fc91906115ec565b60405180910390f35b61020d6105f8565b005b61021761060c565b604051610224919061175f565b60405180910390f35b610235610707565b6040516102429190611479565b60405180910390f35b610253610730565b60405161026091906117be565b60405180910390f35b610283600480360381019061027e91906114cc565b61080d565b005b61029f600480360381019061029a919061180c565b610931565b6040516102ae93929190611854565b60405180910390f35b6102d160048036038101906102cc91906118fa565b610975565b005b6102ed60048036038101906102e89190611acf565b610a2a565b005b61030960048036038101906103049190611359565b610c44565b604051610317929190611b18565b60405180910390f35b61033a6004803603810190610335919061180c565b610d00565b005b6103463382610d83565b50565b6040518060400160405280600581526020017f312e302e3000000000000000000000000000000000000000000000000000000081525081565b6040518060400160405280600d81526020017f4554482d456c656374696f6e730000000000000000000000000000000000000081525081565b600281815481106103cb57600080fd5b906000526020600020016000915054906101000a900473ffffffffffffffffffffffffffffffffffffffff1681565b60048060000154908060010154905082565b60606000836002805490506104219190611b77565b831161042d578261043f565b8360028054905061043e9190611b77565b5b905060008167ffffffffffffffff81111561045d5761045c61198c565b5b60405190808252806020026020018201604052801561048b5781602001602082028036833780820191505090505b5090506000808690505b83876104a19190611bab565b811080156104b3575060028054905081105b1561056357600281815481106104cc576104cb611bdf565b5b9060005260206000200160009054906101000a900473ffffffffffffffffffffffffffffffffffffffff1683838061050390611c0e565b94508151811061051657610515611bdf565b5b602002602001019073ffffffffffffffffffffffffffffffffffffffff16908173ffffffffffffffffffffffffffffffffffffffff1681525050808061055b90611c0e565b915050610495565b5081935050505092915050565b6000806000905060005b6003805490508110156105f357816003828154811061059c5761059b611bdf565b5b90600052602060002090600202016001015411156105e057600381815481106105c8576105c7611bdf565b5b90600052602060002090600202016001015491508092505b80806105eb90611c0e565b91505061057a565b505090565b610600610f6b565b61060a6000610fe9565b565b60606003805480602002602001604051908101604052809291908181526020016000905b828210156106fe578382906000526020600020906002020160405180604001604052908160008201805461066390611c85565b80601f016020809104026020016040519081016040528092919081815260200182805461068f90611c85565b80156106dc5780601f106106b1576101008083540402835291602001916106dc565b820191906000526020600020905b8154815290600101906020018083116106bf57829003601f168201915b5050505050815260200160018201548152505081526020019060010190610630565b50505050905090565b60008060009054906101000a900473ffffffffffffffffffffffffffffffffffffffff16905090565b6107386112f5565b6003610742610570565b8154811061075357610752611bdf565b5b906000526020600020906002020160405180604001604052908160008201805461077c90611c85565b80601f01602080910402602001604051908101604052809291908181526020018280546107a890611c85565b80156107f55780601f106107ca576101008083540402835291602001916107f5565b820191906000526020600020905b8154815290600101906020018083116107d857829003601f168201915b50505050508152602001600182015481525050905090565b610815610f6b565b600460000154421061085c576040517f08c379a000000000000000000000000000000000000000000000000000000000815260040161085390611d02565b60405180910390fd5b81421061089e576040517f08c379a000000000000000000000000000000000000000000000000000000000815260040161089590611d6e565b60405180910390fd5b8082106108e0576040517f08c379a00000000000000000000000000000000000000000000000000000000081526004016108d790611dda565b60405180910390fd5b81600460000181905550806004600101819055507fb2d78cec0582b6c1582ce85ec169d7eef7c2f30157784daf596227f6a913a56682826040516109259291906114a3565b60405180910390a15050565b60016020528060005260406000206000915090508060000160009054906101000a900460ff16908060000160019054906101000a900460ff16908060010154905083565b818042106109b8576040517f08c379a00000000000000000000000000000000000000000000000000000000081526004016109af90611e46565b60405180910390fd5b60007f627f94cb4147a2160b7dfb09f24458a4a17fbc7a0fac5396f6b22c4aae0630928585856040516020016109f19493929190611e75565b604051602081830303815290604052805190602001209050610a1688888888856110ad565b610a208584610d83565b5050505050505050565b610a32610f6b565b6004600001544210610a79576040517f08c379a0000000000000000000000000000000000000000000000000000000008152600401610a7090611d02565b60405180910390fd5b60005b8151811015610c405760006040518060600160405280600115158152602001600015158152602001600081525090508060016000858581518110610ac357610ac2611bdf565b5b602002602001015173ffffffffffffffffffffffffffffffffffffffff1673ffffffffffffffffffffffffffffffffffffffff16815260200190815260200160002060008201518160000160006101000a81548160ff02191690831515021790555060208201518160000160016101000a81548160ff021916908315150217905550604082015181600101559050506002838381518110610b6757610b66611bdf565b5b60200260200101519080600181540180825580915050600190039060005260206000200160009091909190916101000a81548173ffffffffffffffffffffffffffffffffffffffff021916908373ffffffffffffffffffffffffffffffffffffffff160217905550828281518110610be257610be1611bdf565b5b602002602001015173ffffffffffffffffffffffffffffffffffffffff167f15fe6f1bc57ee784ec1d747d150facfe23b3d8f21303f37b9c99ff8d2389c82660405160405180910390a2508080610c3890611c0e565b915050610a7c565b5050565b60038181548110610c5457600080fd5b9060005260206000209060020201600091509050806000018054610c7790611c85565b80601f0160208091040260200160405190810160405280929190818152602001828054610ca390611c85565b8015610cf05780601f10610cc557610100808354040283529160200191610cf0565b820191906000526020600020905b815481529060010190602001808311610cd357829003601f168201915b5050505050908060010154905082565b610d08610f6b565b600073ffffffffffffffffffffffffffffffffffffffff168173ffffffffffffffffffffffffffffffffffffffff1603610d77576040517f08c379a0000000000000000000000000000000000000000000000000000000008152600401610d6e90611f2c565b60405180910390fd5b610d8081610fe9565b50565b6004600001544210158015610d9c575060046001015442105b610ddb576040517f08c379a0000000000000000000000000000000000000000000000000000000008152600401610dd290611f98565b60405180910390fd5b6000600160008473ffffffffffffffffffffffffffffffffffffffff1673ffffffffffffffffffffffffffffffffffffffff16815260200190815260200160002090508060000160009054906101000a900460ff16610e6f576040517f08c379a0000000000000000000000000000000000000000000000000000000008152600401610e6690612004565b60405180910390fd5b8060000160019054906101000a900460ff1615610ec1576040517f08c379a0000000000000000000000000000000000000000000000000000000008152600401610eb890612070565b60405180910390fd5b60018160000160016101000a81548160ff02191690831515021790555081816001018190555060038281548110610efb57610efa611bdf565b5b90600052602060002090600202016001016000815480929190610f1d90611c0e565b9190505550818373ffffffffffffffffffffffffffffffffffffffff167ff668ead05c744b9178e571d2edb452e72baf6529c8d72160e64e59b50d865bd060405160405180910390a3505050565b610f7361121a565b73ffffffffffffffffffffffffffffffffffffffff16610f91610707565b73ffffffffffffffffffffffffffffffffffffffff1614610fe7576040517f08c379a0000000000000000000000000000000000000000000000000000000008152600401610fde906120dc565b60405180910390fd5b565b60008060009054906101000a900473ffffffffffffffffffffffffffffffffffffffff169050816000806101000a81548173ffffffffffffffffffffffffffffffffffffffff021916908373ffffffffffffffffffffffffffffffffffffffff1602179055508173ffffffffffffffffffffffffffffffffffffffff168173ffffffffffffffffffffffffffffffffffffffff167f8be0079c531659141344cd1fd0a4f28419497f9722a3daafe3b4186f6b6457e060405160405180910390a35050565b60006110b7611222565b826040516020016110c9929190612174565b60405160208183030381529060405280519060200120905060006001828888886040516000815260200160405260405161110694939291906121ba565b6020604051602081039080840390855afa158015611128573d6000803e3d6000fd5b5050506020604051035190508373ffffffffffffffffffffffffffffffffffffffff168173ffffffffffffffffffffffffffffffffffffffff16146111a2576040517f08c379a00000000000000000000000000000000000000000000000000000000081526004016111999061224b565b60405180910390fd5b600073ffffffffffffffffffffffffffffffffffffffff168173ffffffffffffffffffffffffffffffffffffffff1603611211576040517f08c379a0000000000000000000000000000000000000000000000000000000008152600401611208906122b7565b60405180910390fd5b50505050505050565b600033905090565b6000804690507f8b73c3c69bb8fe3d512ecc4cf759cc79239f7b179b0ffacaa9a75d522b39400f6040518060400160405280600d81526020017f4554482d456c656374696f6e7300000000000000000000000000000000000000815250805190602001206040518060400160405280600581526020017f312e302e300000000000000000000000000000000000000000000000000000008152508051906020012083306040516020016112d99594939291906122d7565b6040516020818303038152906040528051906020012091505090565b604051806040016040528060608152602001600081525090565b6000604051905090565b600080fd5b600080fd5b6000819050919050565b61133681611323565b811461134157600080fd5b50565b6000813590506113538161132d565b92915050565b60006020828403121561136f5761136e611319565b5b600061137d84828501611344565b91505092915050565b600081519050919050565b600082825260208201905092915050565b60005b838110156113c05780820151818401526020810190506113a5565b60008484015250505050565b6000601f19601f8301169050919050565b60006113e882611386565b6113f28185611391565b93506114028185602086016113a2565b61140b816113cc565b840191505092915050565b6000602082019050818103600083015261143081846113dd565b905092915050565b600073ffffffffffffffffffffffffffffffffffffffff82169050919050565b600061146382611438565b9050919050565b61147381611458565b82525050565b600060208201905061148e600083018461146a565b92915050565b61149d81611323565b82525050565b60006040820190506114b86000830185611494565b6114c56020830184611494565b9392505050565b600080604083850312156114e3576114e2611319565b5b60006114f185828601611344565b925050602061150285828601611344565b9150509250929050565b600081519050919050565b600082825260208201905092915050565b6000819050602082019050919050565b61154181611458565b82525050565b60006115538383611538565b60208301905092915050565b6000602082019050919050565b60006115778261150c565b6115818185611517565b935061158c83611528565b8060005b838110156115bd5781516115a48882611547565b97506115af8361155f565b925050600181019050611590565b5085935050505092915050565b600060208201905081810360008301526115e4818461156c565b905092915050565b60006020820190506116016000830184611494565b92915050565b600081519050919050565b600082825260208201905092915050565b6000819050602082019050919050565b600082825260208201905092915050565b600061164f82611386565b6116598185611633565b93506116698185602086016113a2565b611672816113cc565b840191505092915050565b61168681611323565b82525050565b600060408301600083015184820360008601526116a98282611644565b91505060208301516116be602086018261167d565b508091505092915050565b60006116d5838361168c565b905092915050565b6000602082019050919050565b60006116f582611607565b6116ff8185611612565b93508360208202850161171185611623565b8060005b8581101561174d578484038952815161172e85826116c9565b9450611739836116dd565b925060208a01995050600181019050611715565b50829750879550505050505092915050565b6000602082019050818103600083015261177981846116ea565b905092915050565b6000604083016000830151848203600086015261179e8282611644565b91505060208301516117b3602086018261167d565b508091505092915050565b600060208201905081810360008301526117d88184611781565b905092915050565b6117e981611458565b81146117f457600080fd5b50565b600081359050611806816117e0565b92915050565b60006020828403121561182257611821611319565b5b6000611830848285016117f7565b91505092915050565b60008115159050919050565b61184e81611839565b82525050565b60006060820190506118696000830186611845565b6118766020830185611845565b6118836040830184611494565b949350505050565b600060ff82169050919050565b6118a18161188b565b81146118ac57600080fd5b50565b6000813590506118be81611898565b92915050565b6000819050919050565b6118d7816118c4565b81146118e257600080fd5b50565b6000813590506118f4816118ce565b92915050565b60008060008060008060c0878903121561191757611916611319565b5b600061192589828a016118af565b965050602061193689828a016118e5565b955050604061194789828a016118e5565b945050606061195889828a016117f7565b935050608061196989828a01611344565b92505060a061197a89828a01611344565b9150509295509295509295565b600080fd5b7f4e487b7100000000000000000000000000000000000000000000000000000000600052604160045260246000fd5b6119c4826113cc565b810181811067ffffffffffffffff821117156119e3576119e261198c565b5b80604052505050565b60006119f661130f565b9050611a0282826119bb565b919050565b600067ffffffffffffffff821115611a2257611a2161198c565b5b602082029050602081019050919050565b600080fd5b6000611a4b611a4684611a07565b6119ec565b90508083825260208201905060208402830185811115611a6e57611a6d611a33565b5b835b81811015611a975780611a8388826117f7565b845260208401935050602081019050611a70565b5050509392505050565b600082601f830112611ab657611ab5611987565b5b8135611ac6848260208601611a38565b91505092915050565b600060208284031215611ae557611ae4611319565b5b600082013567ffffffffffffffff811115611b0357611b0261131e565b5b611b0f84828501611aa1565b91505092915050565b60006040820190508181036000830152611b3281856113dd565b9050611b416020830184611494565b9392505050565b7f4e487b7100000000000000000000000000000000000000000000000000000000600052601160045260246000fd5b6000611b8282611323565b9150611b8d83611323565b9250828203905081811115611ba557611ba4611b48565b5b92915050565b6000611bb682611323565b9150611bc183611323565b9250828201905080821115611bd957611bd8611b48565b5b92915050565b7f4e487b7100000000000000000000000000000000000000000000000000000000600052603260045260246000fd5b6000611c1982611323565b91507fffffffffffffffffffffffffffffffffffffffffffffffffffffffffffffffff8203611c4b57611c4a611b48565b5b600182019050919050565b7f4e487b7100000000000000000000000000000000000000000000000000000000600052602260045260246000fd5b60006002820490506001821680611c9d57607f821691505b602082108103611cb057611caf611c56565b5b50919050565b7f566f74696e6720616c726561647920737461727465642e000000000000000000600082015250565b6000611cec601783611391565b9150611cf782611cb6565b602082019050919050565b60006020820190508181036000830152611d1b81611cdf565b9050919050565b7f5374617274206461746520697320696e20746865207061737400000000000000600082015250565b6000611d58601983611391565b9150611d6382611d22565b602082019050919050565b60006020820190508181036000830152611d8781611d4b565b9050919050565b7f496e76616c696420646174657320706173736564000000000000000000000000600082015250565b6000611dc4601483611391565b9150611dcf82611d8e565b602082019050919050565b60006020820190508181036000830152611df381611db7565b9050919050565b7f5369676e6564207472616e73616374696f6e2065787069726564000000000000600082015250565b6000611e30601a83611391565b9150611e3b82611dfa565b602082019050919050565b60006020820190508181036000830152611e5f81611e23565b9050919050565b611e6f816118c4565b82525050565b6000608082019050611e8a6000830187611e66565b611e97602083018661146a565b611ea46040830185611494565b611eb16060830184611494565b95945050505050565b7f4f776e61626c653a206e6577206f776e657220697320746865207a65726f206160008201527f6464726573730000000000000000000000000000000000000000000000000000602082015250565b6000611f16602683611391565b9150611f2182611eba565b604082019050919050565b60006020820190508181036000830152611f4581611f09565b9050919050565b7f566f74696e67206973206e6f7420696e2070726f636573732e00000000000000600082015250565b6000611f82601983611391565b9150611f8d82611f4c565b602082019050919050565b60006020820190508181036000830152611fb181611f75565b9050919050565b7f486173206e6f20726967687420746f20766f7465000000000000000000000000600082015250565b6000611fee601483611391565b9150611ff982611fb8565b602082019050919050565b6000602082019050818103600083015261201d81611fe1565b9050919050565b7f416c726561647920766f7465642e000000000000000000000000000000000000600082015250565b600061205a600e83611391565b915061206582612024565b602082019050919050565b600060208201905081810360008301526120898161204d565b9050919050565b7f4f776e61626c653a2063616c6c6572206973206e6f7420746865206f776e6572600082015250565b60006120c6602083611391565b91506120d182612090565b602082019050919050565b600060208201905081810360008301526120f5816120b9565b9050919050565b600081905092915050565b7f1901000000000000000000000000000000000000000000000000000000000000600082015250565b600061213d6002836120fc565b915061214882612107565b600282019050919050565b6000819050919050565b61216e612169826118c4565b612153565b82525050565b600061217f82612130565b915061218b828561215d565b60208201915061219b828461215d565b6020820191508190509392505050565b6121b48161188b565b82525050565b60006080820190506121cf6000830187611e66565b6121dc60208301866121ab565b6121e96040830185611e66565b6121f66060830184611e66565b95945050505050565b7f496e76616c6964207369676e6174757265000000000000000000000000000000600082015250565b6000612235601183611391565b9150612240826121ff565b602082019050919050565b6000602082019050818103600083015261226481612228565b9050919050565b7f45434453413a20696e76616c6964207369676e61747572650000000000000000600082015250565b60006122a1601883611391565b91506122ac8261226b565b602082019050919050565b600060208201905081810360008301526122d081612294565b9050919050565b600060a0820190506122ec6000830188611e66565b6122f96020830187611e66565b6123066040830186611e66565b6123136060830185611494565b612320608083018461146a565b969550505050505056fea2646970667358221220b99f548cf7b8b7603fd3e8ae4eefec1a09cc29d976691c43005bd83e39723c3464736f6c63430008110033",
  "linkReferences": {},
  "deployedLinkReferences": {}
}